{
  "contractName": "MarketPlace",
  "abi": [
    {
      "anonymous": false,
      "inputs": [
        {
          "indexed": false,
          "internalType": "uint256",
          "name": "sku",
          "type": "uint256"
        }
      ],
      "name": "LogForSale",
      "type": "event"
    },
    {
      "anonymous": false,
      "inputs": [
        {
          "indexed": false,
          "internalType": "uint256",
          "name": "sku",
          "type": "uint256"
        },
        {
          "indexed": false,
          "internalType": "uint256",
          "name": "qty",
          "type": "uint256"
        },
        {
          "indexed": false,
          "internalType": "address",
          "name": "buyer",
          "type": "address"
        }
      ],
      "name": "LogSold",
      "type": "event"
    },
    {
      "anonymous": false,
      "inputs": [
        {
          "indexed": true,
          "internalType": "address",
          "name": "previousOwner",
          "type": "address"
        },
        {
          "indexed": true,
          "internalType": "address",
          "name": "newOwner",
          "type": "address"
        }
      ],
      "name": "OwnershipTransferred",
      "type": "event"
    },
    {
      "inputs": [
        {
          "internalType": "uint256",
          "name": "",
          "type": "uint256"
        }
      ],
      "name": "items",
      "outputs": [
        {
          "internalType": "uint256",
          "name": "sku",
          "type": "uint256"
        },
        {
          "internalType": "string",
          "name": "itemName",
          "type": "string"
        },
        {
          "internalType": "uint256",
          "name": "itemPrice",
          "type": "uint256"
        },
        {
          "internalType": "enum MarketPlace.SaleState",
          "name": "state",
          "type": "uint8"
        },
        {
          "internalType": "uint256",
          "name": "qty",
          "type": "uint256"
        },
        {
          "internalType": "uint256",
          "name": "itemsSold",
          "type": "uint256"
        },
        {
          "internalType": "address payable",
          "name": "seller",
          "type": "address"
        },
        {
          "internalType": "uint256",
          "name": "startBlock",
          "type": "uint256"
        },
        {
          "internalType": "uint256",
          "name": "endBlock",
          "type": "uint256"
        },
        {
          "internalType": "uint256",
          "name": "saleTotal",
          "type": "uint256"
        }
      ],
      "stateMutability": "view",
      "type": "function"
    },
    {
      "inputs": [],
      "name": "owner",
      "outputs": [
        {
          "internalType": "address",
          "name": "",
          "type": "address"
        }
      ],
      "stateMutability": "view",
      "type": "function"
    },
    {
      "inputs": [],
      "name": "renounceOwnership",
      "outputs": [],
      "stateMutability": "nonpayable",
      "type": "function"
    },
    {
      "inputs": [],
      "name": "salesCount",
      "outputs": [
        {
          "internalType": "uint256",
          "name": "",
          "type": "uint256"
        }
      ],
      "stateMutability": "view",
      "type": "function"
    },
    {
      "inputs": [],
      "name": "skuCount",
      "outputs": [
        {
          "internalType": "uint256",
          "name": "",
          "type": "uint256"
        }
      ],
      "stateMutability": "view",
      "type": "function"
    },
    {
      "inputs": [
        {
          "internalType": "address",
          "name": "newOwner",
          "type": "address"
        }
      ],
      "name": "transferOwnership",
      "outputs": [],
      "stateMutability": "nonpayable",
      "type": "function"
    },
    {
      "inputs": [
        {
          "internalType": "string",
          "name": "_itemName",
          "type": "string"
        },
        {
          "internalType": "uint256",
          "name": "_itemPrice",
          "type": "uint256"
        },
        {
          "internalType": "uint256",
          "name": "_qty",
          "type": "uint256"
        }
      ],
      "name": "createMarketItem",
      "outputs": [
        {
          "internalType": "bool",
          "name": "",
          "type": "bool"
        }
      ],
      "stateMutability": "payable",
      "type": "function"
    },
    {
      "inputs": [
        {
          "internalType": "uint256",
          "name": "_sku",
          "type": "uint256"
        },
        {
          "internalType": "uint256",
          "name": "qty",
          "type": "uint256"
        }
      ],
      "name": "buyItem",
      "outputs": [],
      "stateMutability": "payable",
      "type": "function"
    }
  ],
  "bytecode": "0x60806040526000600255600060035534801561001a57600080fd5b50600160008190555061003f61003461004460201b60201c565b61004c60201b60201c565b610112565b600033905090565b6000600160009054906101000a900473ffffffffffffffffffffffffffffffffffffffff16905081600160006101000a81548173ffffffffffffffffffffffffffffffffffffffff021916908373ffffffffffffffffffffffffffffffffffffffff1602179055508173ffffffffffffffffffffffffffffffffffffffff168173ffffffffffffffffffffffffffffffffffffffff167f8be0079c531659141344cd1fd0a4f28419497f9722a3daafe3b4186f6b6457e060405160405180910390a35050565b611579806101216000396000f3fe60806040526004361061007b5760003560e01c8063991ddc2f1161004e578063991ddc2f146101185780639979c00914610148578063bfb231d214610164578063f2fde38b146101aa5761007b565b80632270247314610080578063682789a8146100ab578063715018a6146100d65780638da5cb5b146100ed575b600080fd5b34801561008c57600080fd5b506100956101d3565b6040516100a29190610c4b565b60405180910390f35b3480156100b757600080fd5b506100c06101d9565b6040516100cd9190610c4b565b60405180910390f35b3480156100e257600080fd5b506100eb6101df565b005b3480156100f957600080fd5b50610102610267565b60405161010f9190610ca7565b60405180910390f35b610132600480360381019061012d9190610e48565b610291565b60405161013f9190610ed2565b60405180910390f35b610162600480360381019061015d9190610eed565b6104df565b005b34801561017057600080fd5b5061018b60048036038101906101869190610f2d565b6108c0565b6040516101a19a9998979695949392919061107a565b60405180910390f35b3480156101b657600080fd5b506101d160048036038101906101cc9190611149565b6109c9565b005b60025481565b60035481565b6101e7610ac1565b73ffffffffffffffffffffffffffffffffffffffff16610205610267565b73ffffffffffffffffffffffffffffffffffffffff161461025b576040517f08c379a0000000000000000000000000000000000000000000000000000000008152600401610252906111c2565b60405180910390fd5b6102656000610ac9565b565b6000600160009054906101000a900473ffffffffffffffffffffffffffffffffffffffff16905090565b6000600260005414156102d9576040517f08c379a00000000000000000000000000000000000000000000000000000000081526004016102d09061122e565b60405180910390fd5b600260008190555060008451116102ef57600080fd5b600083116102fc57600080fd5b6000821161030957600080fd5b60405180610140016040528060025481526020018581526020018481526020016001600281111561033d5761033c610fe2565b5b8152602001838152602001600081526020013373ffffffffffffffffffffffffffffffffffffffff16815260200143815260200162100a4043610380919061127d565b815260200160008152506004600060025481526020019081526020016000206000820151816000015560208201518160010190805190602001906103c5929190610b8f565b506040820151816002015560608201518160030160006101000a81548160ff021916908360028111156103fb576103fa610fe2565b5b02179055506080820151816004015560a0820151816005015560c08201518160060160006101000a81548173ffffffffffffffffffffffffffffffffffffffff021916908373ffffffffffffffffffffffffffffffffffffffff16021790555060e0820151816007015561010082015181600801556101208201518160090155905050600160025461048d919061127d565b6002819055507f4627c48065af2a9648cbecdd4b9da340c00e501243cd49a8a71c30c987e8b7616002546040516104c49190610c4b565b60405180910390a16001905060016000819055509392505050565b81436004600083815260200190815260200160002060070154111561050357600080fd5b436004600083815260200190815260200160002060080154101561052657600080fd5b6001600281111561053a57610539610fe2565b5b6004600083815260200190815260200160002060030160009054906101000a900460ff1660028111156105705761056f610fe2565b5b1461057a57600080fd5b600060046000838152602001908152602001600020600001541161059d57600080fd5b60046000848152602001908152602001600020600201548280826105c191906112d3565b341015610603576040517f08c379a00000000000000000000000000000000000000000000000000000000081526004016105fa906113c5565b60405180910390fd5b84846002600054141561064b576040517f08c379a00000000000000000000000000000000000000000000000000000000081526004016106429061122e565b60405180910390fd5b60026000819055506001600281111561066757610666610fe2565b5b6004600089815260200190815260200160002060030160009054906101000a900460ff16600281111561069d5761069c610fe2565b5b146106a757600080fd5b60046000888152602001908152602001600020600401548611156106ca57600080fd5b856004600089815260200190815260200160002060040160008282546106f091906113e5565b925050819055508560046000898152602001908152602001600020600501600082825461071d919061127d565b92505081905550600086600460008a81526020019081526020016000206002015461074891906112d3565b90506004600089815260200190815260200160002060060160009054906101000a900473ffffffffffffffffffffffffffffffffffffffff1673ffffffffffffffffffffffffffffffffffffffff166108fc829081150290604051600060405180830381858888f193505050501580156107c6573d6000803e3d6000fd5b5080600460008a815260200190815260200160002060090160008282546107ed919061127d565b925050819055507f8f3b8e2afb709a56cd086b1a4e162d1ed7d0f7a69d431f68fd014d08b87e50b288883360405161082793929190611419565b60405180910390a15060016000819055506000600460008481526020019081526020016000206002015490506000828261086191906112d3565b3461086c91906113e5565b90503373ffffffffffffffffffffffffffffffffffffffff166108fc829081150290604051600060405180830381858888f193505050501580156108b4573d6000803e3d6000fd5b50505050505050505050565b60046020528060005260406000206000915090508060000154908060010180546108e99061147f565b80601f01602080910402602001604051908101604052809291908181526020018280546109159061147f565b80156109625780601f1061093757610100808354040283529160200191610962565b820191906000526020600020905b81548152906001019060200180831161094557829003601f168201915b5050505050908060020154908060030160009054906101000a900460ff16908060040154908060050154908060060160009054906101000a900473ffffffffffffffffffffffffffffffffffffffff1690806007015490806008015490806009015490508a565b6109d1610ac1565b73ffffffffffffffffffffffffffffffffffffffff166109ef610267565b73ffffffffffffffffffffffffffffffffffffffff1614610a45576040517f08c379a0000000000000000000000000000000000000000000000000000000008152600401610a3c906111c2565b60405180910390fd5b600073ffffffffffffffffffffffffffffffffffffffff168173ffffffffffffffffffffffffffffffffffffffff161415610ab5576040517f08c379a0000000000000000000000000000000000000000000000000000000008152600401610aac90611523565b60405180910390fd5b610abe81610ac9565b50565b600033905090565b6000600160009054906101000a900473ffffffffffffffffffffffffffffffffffffffff16905081600160006101000a81548173ffffffffffffffffffffffffffffffffffffffff021916908373ffffffffffffffffffffffffffffffffffffffff1602179055508173ffffffffffffffffffffffffffffffffffffffff168173ffffffffffffffffffffffffffffffffffffffff167f8be0079c531659141344cd1fd0a4f28419497f9722a3daafe3b4186f6b6457e060405160405180910390a35050565b828054610b9b9061147f565b90600052602060002090601f016020900481019282610bbd5760008555610c04565b82601f10610bd657805160ff1916838001178555610c04565b82800160010185558215610c04579182015b82811115610c03578251825591602001919060010190610be8565b5b509050610c119190610c15565b5090565b5b80821115610c2e576000816000905550600101610c16565b5090565b6000819050919050565b610c4581610c32565b82525050565b6000602082019050610c606000830184610c3c565b92915050565b600073ffffffffffffffffffffffffffffffffffffffff82169050919050565b6000610c9182610c66565b9050919050565b610ca181610c86565b82525050565b6000602082019050610cbc6000830184610c98565b92915050565b6000604051905090565b600080fd5b600080fd5b600080fd5b600080fd5b6000601f19601f8301169050919050565b7f4e487b7100000000000000000000000000000000000000000000000000000000600052604160045260246000fd5b610d2982610ce0565b810181811067ffffffffffffffff82111715610d4857610d47610cf1565b5b80604052505050565b6000610d5b610cc2565b9050610d678282610d20565b919050565b600067ffffffffffffffff821115610d8757610d86610cf1565b5b610d9082610ce0565b9050602081019050919050565b82818337600083830152505050565b6000610dbf610dba84610d6c565b610d51565b905082815260208101848484011115610ddb57610dda610cdb565b5b610de6848285610d9d565b509392505050565b600082601f830112610e0357610e02610cd6565b5b8135610e13848260208601610dac565b91505092915050565b610e2581610c32565b8114610e3057600080fd5b50565b600081359050610e4281610e1c565b92915050565b600080600060608486031215610e6157610e60610ccc565b5b600084013567ffffffffffffffff811115610e7f57610e7e610cd1565b5b610e8b86828701610dee565b9350506020610e9c86828701610e33565b9250506040610ead86828701610e33565b9150509250925092565b60008115159050919050565b610ecc81610eb7565b82525050565b6000602082019050610ee76000830184610ec3565b92915050565b60008060408385031215610f0457610f03610ccc565b5b6000610f1285828601610e33565b9250506020610f2385828601610e33565b9150509250929050565b600060208284031215610f4357610f42610ccc565b5b6000610f5184828501610e33565b91505092915050565b600081519050919050565b600082825260208201905092915050565b60005b83811015610f94578082015181840152602081019050610f79565b83811115610fa3576000848401525b50505050565b6000610fb482610f5a565b610fbe8185610f65565b9350610fce818560208601610f76565b610fd781610ce0565b840191505092915050565b7f4e487b7100000000000000000000000000000000000000000000000000000000600052602160045260246000fd5b6003811061102257611021610fe2565b5b50565b600081905061103382611011565b919050565b600061104382611025565b9050919050565b61105381611038565b82525050565b600061106482610c66565b9050919050565b61107481611059565b82525050565b600061014082019050611090600083018d610c3c565b81810360208301526110a2818c610fa9565b90506110b1604083018b610c3c565b6110be606083018a61104a565b6110cb6080830189610c3c565b6110d860a0830188610c3c565b6110e560c083018761106b565b6110f260e0830186610c3c565b611100610100830185610c3c565b61110e610120830184610c3c565b9b9a5050505050505050505050565b61112681610c86565b811461113157600080fd5b50565b6000813590506111438161111d565b92915050565b60006020828403121561115f5761115e610ccc565b5b600061116d84828501611134565b91505092915050565b7f4f776e61626c653a2063616c6c6572206973206e6f7420746865206f776e6572600082015250565b60006111ac602083610f65565b91506111b782611176565b602082019050919050565b600060208201905081810360008301526111db8161119f565b9050919050565b7f5265656e7472616e637947756172643a207265656e7472616e742063616c6c00600082015250565b6000611218601f83610f65565b9150611223826111e2565b602082019050919050565b600060208201905081810360008301526112478161120b565b9050919050565b7f4e487b7100000000000000000000000000000000000000000000000000000000600052601160045260246000fd5b600061128882610c32565b915061129383610c32565b9250827fffffffffffffffffffffffffffffffffffffffffffffffffffffffffffffffff038211156112c8576112c761124e565b5b828201905092915050565b60006112de82610c32565b91506112e983610c32565b9250817fffffffffffffffffffffffffffffffffffffffffffffffffffffffffffffffff04831182151516156113225761132161124e565b5b828202905092915050565b7f506c65617365207375626d6974207468652061736b696e67207072696365206960008201527f6e206f7264657220746f20636f6d706c6574652074686520707572636861736560208201527f2e00000000000000000000000000000000000000000000000000000000000000604082015250565b60006113af604183610f65565b91506113ba8261132d565b606082019050919050565b600060208201905081810360008301526113de816113a2565b9050919050565b60006113f082610c32565b91506113fb83610c32565b92508282101561140e5761140d61124e565b5b828203905092915050565b600060608201905061142e6000830186610c3c565b61143b6020830185610c3c565b6114486040830184610c98565b949350505050565b7f4e487b7100000000000000000000000000000000000000000000000000000000600052602260045260246000fd5b6000600282049050600182168061149757607f821691505b602082108114156114ab576114aa611450565b5b50919050565b7f4f776e61626c653a206e6577206f776e657220697320746865207a65726f206160008201527f6464726573730000000000000000000000000000000000000000000000000000602082015250565b600061150d602683610f65565b9150611518826114b1565b604082019050919050565b6000602082019050818103600083015261153c81611500565b905091905056fea26469706673582212205d39ca890e4de41279f8122971d21b2a6accd439259536c2e1571438dee0600d64736f6c634300080a0033",
  "immutableReferences": {},
  "source": "// SPDX-License-Identifier: GPL-3.0\npragma solidity >=0.7.0 <0.9.0;\n\nimport \"@openzeppelin/contracts/security/ReentrancyGuard.sol\";\nimport \"@openzeppelin/contracts/access/Ownable.sol\";\n\ncontract MarketPlace is ReentrancyGuard, Ownable {\n    uint public skuCount = 0;\n    uint public salesCount = 0; //to keep track of how many purchases are stored in the mapping\n\n    enum SaleState {\n        Started,\n        Running,\n        Ended\n    }\n    struct Item {\n        uint sku;\n        string itemName;\n        uint itemPrice;\n        SaleState state;\n        uint qty;\n        uint itemsSold;\n        address payable seller;\n        uint startBlock;\n        uint endBlock;\n        uint saleTotal;\n    }\n    mapping(uint => Item) public items; // creates key value pair so we are able to retrieve an item based on its properties\n    \n    event LogSold(uint sku, uint qty, address buyer);\n    event LogForSale(uint sku); \n    \n    \n    modifier onSale(uint _sku){\n        require(items[_sku].startBlock <= block.number);\n        require(items[_sku].endBlock >= block.number);\n        require (items[_sku].state == SaleState.Running);\n        require (items[_sku].sku > 0);\n        _;\n    }\n    \n    modifier paidEnough (uint _itemPrice, uint qty) {\n        require(msg.value >= _itemPrice * qty, \"Please submit the asking price in order to complete the purchase.\");\n        _;\n    }\n    \n    \n    modifier checkValue (uint _sku, uint _qty) {\n        _;\n        uint _itemPrice = items[_sku].itemPrice;\n        uint amountToRefund = msg.value - (_itemPrice * _qty);\n        payable(msg.sender).transfer(amountToRefund);\n    }\n\n    \n    function createMarketItem(string memory _itemName, uint _itemPrice, uint _qty) payable public\n        nonReentrant returns (bool)\n    {\n      require(bytes(_itemName).length > 0);\n      require(_itemPrice > 0);\n      require(_qty > 0);\n\n        items[skuCount] = Item({ //adding Item to items mapping\n            sku: skuCount,\n            itemName: _itemName,\n            itemPrice: _itemPrice,\n            state: SaleState.Running,\n            qty: _qty,\n            itemsSold: 0,\n            seller: payable(msg.sender),\n            startBlock: block.number,\n            endBlock:  block.number + 1051200,\n            saleTotal: 0\n            \n        });\n        skuCount = skuCount + 1;\n        emit LogForSale(skuCount);\n        return true;\n    }\n    \n        function buyItem(uint _sku, uint qty) public payable // purchase qty = 3, stock items[_sku].qty =10\n            onSale(_sku)\n            \n            paidEnough(items[_sku].itemPrice, qty)\n            checkValue(_sku,  qty)\n            nonReentrant\n        {\n            require(items[_sku].state == SaleState.Running);\n            require(qty <= items[_sku].qty);\n            items[_sku].qty -= qty;\n            items[_sku].itemsSold += qty;\n            //items[_sku].buyer[msg.sender] += qty; // updating the total amount that msg.sender has purchased\n             \n            uint totalPaid = items[_sku].itemPrice * qty;\n            items[_sku].seller.transfer(totalPaid);\n            items[_sku].saleTotal += totalPaid;\n             \n            emit LogSold(_sku, qty, msg.sender);\n        }\n}",
  "sourcePath": "/Users/mouzayanalkhalil/supernovas/consensys/contracts/Marketplace.sol",
  "compiler": {
    "name": "solc",
    "version": "0.8.10+commit.fc410830.Emscripten.clang"
  },
  "schemaVersion": "3.4.3",
  "updatedAt": "2021-11-24T01:21:55.802Z",
  "devdoc": {
    "kind": "dev",
    "methods": {
      "owner()": {
        "details": "Returns the address of the current owner."
      },
      "renounceOwnership()": {
        "details": "Leaves the contract without owner. It will not be possible to call `onlyOwner` functions anymore. Can only be called by the current owner. NOTE: Renouncing ownership will leave the contract without an owner, thereby removing any functionality that is only available to the owner."
      },
      "transferOwnership(address)": {
        "details": "Transfers ownership of the contract to a new account (`newOwner`). Can only be called by the current owner."
      }
    },
    "version": 1
  },
  "userdoc": {
    "kind": "user",
    "methods": {},
    "version": 1
  }
}