{
  "contractName": "MarketPlace",
  "abi": [
    {
      "anonymous": false,
      "inputs": [
        {
          "indexed": false,
          "internalType": "uint256",
          "name": "sku",
          "type": "uint256"
        }
      ],
      "name": "LogForSale",
      "type": "event"
    },
    {
      "anonymous": false,
      "inputs": [
        {
          "indexed": false,
          "internalType": "uint256",
          "name": "sku",
          "type": "uint256"
        },
        {
          "indexed": false,
          "internalType": "string",
          "name": "itemName",
          "type": "string"
        },
        {
          "indexed": false,
          "internalType": "uint256",
          "name": "qty",
          "type": "uint256"
        },
        {
          "indexed": false,
          "internalType": "uint256",
          "name": "itemPrice",
          "type": "uint256"
        },
        {
          "indexed": false,
          "internalType": "address payable",
          "name": "owner",
          "type": "address"
        },
        {
          "indexed": false,
          "internalType": "bool",
          "name": "purchased",
          "type": "bool"
        }
      ],
      "name": "LogSold",
      "type": "event"
    },
    {
      "anonymous": false,
      "inputs": [
        {
          "indexed": true,
          "internalType": "address",
          "name": "previousOwner",
          "type": "address"
        },
        {
          "indexed": true,
          "internalType": "address",
          "name": "newOwner",
          "type": "address"
        }
      ],
      "name": "OwnershipTransferred",
      "type": "event"
    },
    {
      "inputs": [
        {
          "internalType": "uint256",
          "name": "",
          "type": "uint256"
        }
      ],
      "name": "items",
      "outputs": [
        {
          "internalType": "uint256",
          "name": "sku",
          "type": "uint256"
        },
        {
          "internalType": "string",
          "name": "itemName",
          "type": "string"
        },
        {
          "internalType": "uint256",
          "name": "itemPrice",
          "type": "uint256"
        },
        {
          "internalType": "enum MarketPlace.SaleState",
          "name": "state",
          "type": "uint8"
        },
        {
          "internalType": "uint256",
          "name": "qty",
          "type": "uint256"
        },
        {
          "internalType": "uint256",
          "name": "itemsSold",
          "type": "uint256"
        },
        {
          "internalType": "address payable",
          "name": "owner",
          "type": "address"
        },
        {
          "internalType": "uint256",
          "name": "startBlock",
          "type": "uint256"
        },
        {
          "internalType": "uint256",
          "name": "endBlock",
          "type": "uint256"
        },
        {
          "internalType": "uint256",
          "name": "saleTotal",
          "type": "uint256"
        },
        {
          "internalType": "bool",
          "name": "purchased",
          "type": "bool"
        }
      ],
      "stateMutability": "view",
      "type": "function",
      "constant": true
    },
    {
      "inputs": [],
      "name": "owner",
      "outputs": [
        {
          "internalType": "address",
          "name": "",
          "type": "address"
        }
      ],
      "stateMutability": "view",
      "type": "function",
      "constant": true
    },
    {
      "inputs": [],
      "name": "renounceOwnership",
      "outputs": [],
      "stateMutability": "nonpayable",
      "type": "function"
    },
    {
      "inputs": [],
      "name": "salesCount",
      "outputs": [
        {
          "internalType": "uint256",
          "name": "",
          "type": "uint256"
        }
      ],
      "stateMutability": "view",
      "type": "function",
      "constant": true
    },
    {
      "inputs": [],
      "name": "skuCount",
      "outputs": [
        {
          "internalType": "uint256",
          "name": "",
          "type": "uint256"
        }
      ],
      "stateMutability": "view",
      "type": "function",
      "constant": true
    },
    {
      "inputs": [
        {
          "internalType": "address",
          "name": "newOwner",
          "type": "address"
        }
      ],
      "name": "transferOwnership",
      "outputs": [],
      "stateMutability": "nonpayable",
      "type": "function"
    },
    {
      "inputs": [
        {
          "internalType": "string",
          "name": "_itemName",
          "type": "string"
        },
        {
          "internalType": "uint256",
          "name": "_itemPrice",
          "type": "uint256"
        },
        {
          "internalType": "uint256",
          "name": "_qty",
          "type": "uint256"
        }
      ],
      "name": "createMarketItem",
      "outputs": [
        {
          "internalType": "bool",
          "name": "",
          "type": "bool"
        }
      ],
      "stateMutability": "payable",
      "type": "function",
      "payable": true
    },
    {
      "inputs": [
        {
          "internalType": "uint256",
          "name": "_sku",
          "type": "uint256"
        },
        {
          "internalType": "uint256",
          "name": "qty",
          "type": "uint256"
        }
      ],
      "name": "buyItem",
      "outputs": [],
      "stateMutability": "payable",
      "type": "function",
      "payable": true
    }
  ],
  "bytecode": "0x60806040526000600255600060035534801561001a57600080fd5b50600160008190555061003f61003461004460201b60201c565b61004c60201b60201c565b610112565b600033905090565b6000600160009054906101000a900473ffffffffffffffffffffffffffffffffffffffff16905081600160006101000a81548173ffffffffffffffffffffffffffffffffffffffff021916908373ffffffffffffffffffffffffffffffffffffffff1602179055508173ffffffffffffffffffffffffffffffffffffffff168173ffffffffffffffffffffffffffffffffffffffff167f8be0079c531659141344cd1fd0a4f28419497f9722a3daafe3b4186f6b6457e060405160405180910390a35050565b61193a806101216000396000f3fe60806040526004361061007b5760003560e01c8063991ddc2f1161004e578063991ddc2f146101185780639979c00914610148578063bfb231d214610164578063f2fde38b146101ab5761007b565b80632270247314610080578063682789a8146100ab578063715018a6146100d65780638da5cb5b146100ed575b600080fd5b34801561008c57600080fd5b506100956101d4565b6040516100a29190610fcc565b60405180910390f35b3480156100b757600080fd5b506100c06101da565b6040516100cd9190610fcc565b60405180910390f35b3480156100e257600080fd5b506100eb6101e0565b005b3480156100f957600080fd5b50610102610268565b60405161010f9190611028565b60405180910390f35b610132600480360381019061012d91906111c9565b610292565b60405161013f9190611253565b60405180910390f35b610162600480360381019061015d919061126e565b61050a565b005b34801561017057600080fd5b5061018b600480360381019061018691906112ae565b610c2e565b6040516101a29b9a999897969594939291906113fb565b60405180910390f35b3480156101b757600080fd5b506101d260048036038101906101cd91906114d9565b610d4a565b005b60025481565b60035481565b6101e8610e42565b73ffffffffffffffffffffffffffffffffffffffff16610206610268565b73ffffffffffffffffffffffffffffffffffffffff161461025c576040517f08c379a000000000000000000000000000000000000000000000000000000000815260040161025390611552565b60405180910390fd5b6102666000610e4a565b565b6000600160009054906101000a900473ffffffffffffffffffffffffffffffffffffffff16905090565b6000600260005414156102da576040517f08c379a00000000000000000000000000000000000000000000000000000000081526004016102d1906115be565b60405180910390fd5b600260008190555060008451116102f057600080fd5b600083116102fd57600080fd5b6000821161030a57600080fd5b6001600254610319919061160d565b60028190555060405180610160016040528060025481526020018581526020018481526020016001600281111561035357610352611363565b5b8152602001838152602001600081526020013373ffffffffffffffffffffffffffffffffffffffff16815260200143815260200162100a4043610396919061160d565b815260200160008152602001600015158152506004600060025481526020019081526020016000206000820151816000015560208201518160010190805190602001906103e4929190610f10565b506040820151816002015560608201518160030160006101000a81548160ff0219169083600281111561041a57610419611363565b5b02179055506080820151816004015560a0820151816005015560c08201518160060160006101000a81548173ffffffffffffffffffffffffffffffffffffffff021916908373ffffffffffffffffffffffffffffffffffffffff16021790555060e082015181600701556101008201518160080155610120820151816009015561014082015181600a0160006101000a81548160ff0219169083151502179055509050507f4627c48065af2a9648cbecdd4b9da340c00e501243cd49a8a71c30c987e8b7616002546040516104ef9190610fcc565b60405180910390a16001905060016000819055509392505050565b81436004600083815260200190815260200160002060070154111561052e57600080fd5b436004600083815260200190815260200160002060080154101561055157600080fd5b6001600281111561056557610564611363565b5b6004600083815260200190815260200160002060030160009054906101000a900460ff16600281111561059b5761059a611363565b5b146105a557600080fd5b60006004600083815260200190815260200160002060000154116105c857600080fd5b60046000848152602001908152602001600020600201548280826105ec9190611663565b34101561062e576040517f08c379a000000000000000000000000000000000000000000000000000000000815260040161062590611755565b60405180910390fd5b848460026000541415610676576040517f08c379a000000000000000000000000000000000000000000000000000000000815260040161066d906115be565b60405180910390fd5b6002600081905550600060046000600254815260200190815260200160002060405180610160016040529081600082015481526020016001820180546106bb906117a4565b80601f01602080910402602001604051908101604052809291908181526020018280546106e7906117a4565b80156107345780601f1061070957610100808354040283529160200191610734565b820191906000526020600020905b81548152906001019060200180831161071757829003601f168201915b50505050508152602001600282015481526020016003820160009054906101000a900460ff16600281111561076c5761076b611363565b5b600281111561077e5761077d611363565b5b815260200160048201548152602001600582015481526020016006820160009054906101000a900473ffffffffffffffffffffffffffffffffffffffff1673ffffffffffffffffffffffffffffffffffffffff1673ffffffffffffffffffffffffffffffffffffffff168152602001600782015481526020016008820154815260200160098201548152602001600a820160009054906101000a900460ff161515151581525050905060008160c0015190503373ffffffffffffffffffffffffffffffffffffffff168173ffffffffffffffffffffffffffffffffffffffff16141561086957600080fd5b338260c0019073ffffffffffffffffffffffffffffffffffffffff16908173ffffffffffffffffffffffffffffffffffffffff1681525050600160028111156108b5576108b4611363565b5b600460008b815260200190815260200160002060030160009054906101000a900460ff1660028111156108eb576108ea611363565b5b146108f557600080fd5b600460008a81526020019081526020016000206004015488111561091857600080fd5b87600460008b8152602001908152602001600020600401600082825461093e91906117d6565b9250508190555087600460008b8152602001908152602001600020600501600082825461096b919061160d565b92505081905550816004600060025481526020019081526020016000206000820151816000015560208201518160010190805190602001906109ae929190610f10565b506040820151816002015560608201518160030160006101000a81548160ff021916908360028111156109e4576109e3611363565b5b02179055506080820151816004015560a0820151816005015560c08201518160060160006101000a81548173ffffffffffffffffffffffffffffffffffffffff021916908373ffffffffffffffffffffffffffffffffffffffff16021790555060e082015181600701556101008201518160080155610120820151816009015561014082015181600a0160006101000a81548160ff0219169083151502179055509050506001600460008b8152602001908152602001600020600a0160006101000a81548160ff021916908315150217905550600088600460008c815260200190815260200160002060020154610adb9190611663565b90508173ffffffffffffffffffffffffffffffffffffffff166108fc349081150290604051600060405180830381858888f19350505050158015610b23573d6000803e3d6000fd5b5080600460008c81526020019081526020016000206009016000828254610b4a919061160d565b925050819055507f187c55416f37cfcc2c3a720ea22e07740a61deeb28b492aee9466a7c41b9f9838a84602001518b8660400151336001604051610b939695949392919061180a565b60405180910390a1505050600160008190555060006004600084815260200190815260200160002060020154905060008282610bcf9190611663565b34610bda91906117d6565b90503373ffffffffffffffffffffffffffffffffffffffff166108fc829081150290604051600060405180830381858888f19350505050158015610c22573d6000803e3d6000fd5b50505050505050505050565b6004602052806000526040600020600091509050806000015490806001018054610c57906117a4565b80601f0160208091040260200160405190810160405280929190818152602001828054610c83906117a4565b8015610cd05780601f10610ca557610100808354040283529160200191610cd0565b820191906000526020600020905b815481529060010190602001808311610cb357829003601f168201915b5050505050908060020154908060030160009054906101000a900460ff16908060040154908060050154908060060160009054906101000a900473ffffffffffffffffffffffffffffffffffffffff169080600701549080600801549080600901549080600a0160009054906101000a900460ff1690508b565b610d52610e42565b73ffffffffffffffffffffffffffffffffffffffff16610d70610268565b73ffffffffffffffffffffffffffffffffffffffff1614610dc6576040517f08c379a0000000000000000000000000000000000000000000000000000000008152600401610dbd90611552565b60405180910390fd5b600073ffffffffffffffffffffffffffffffffffffffff168173ffffffffffffffffffffffffffffffffffffffff161415610e36576040517f08c379a0000000000000000000000000000000000000000000000000000000008152600401610e2d906118e4565b60405180910390fd5b610e3f81610e4a565b50565b600033905090565b6000600160009054906101000a900473ffffffffffffffffffffffffffffffffffffffff16905081600160006101000a81548173ffffffffffffffffffffffffffffffffffffffff021916908373ffffffffffffffffffffffffffffffffffffffff1602179055508173ffffffffffffffffffffffffffffffffffffffff168173ffffffffffffffffffffffffffffffffffffffff167f8be0079c531659141344cd1fd0a4f28419497f9722a3daafe3b4186f6b6457e060405160405180910390a35050565b828054610f1c906117a4565b90600052602060002090601f016020900481019282610f3e5760008555610f85565b82601f10610f5757805160ff1916838001178555610f85565b82800160010185558215610f85579182015b82811115610f84578251825591602001919060010190610f69565b5b509050610f929190610f96565b5090565b5b80821115610faf576000816000905550600101610f97565b5090565b6000819050919050565b610fc681610fb3565b82525050565b6000602082019050610fe16000830184610fbd565b92915050565b600073ffffffffffffffffffffffffffffffffffffffff82169050919050565b600061101282610fe7565b9050919050565b61102281611007565b82525050565b600060208201905061103d6000830184611019565b92915050565b6000604051905090565b600080fd5b600080fd5b600080fd5b600080fd5b6000601f19601f8301169050919050565b7f4e487b7100000000000000000000000000000000000000000000000000000000600052604160045260246000fd5b6110aa82611061565b810181811067ffffffffffffffff821117156110c9576110c8611072565b5b80604052505050565b60006110dc611043565b90506110e882826110a1565b919050565b600067ffffffffffffffff82111561110857611107611072565b5b61111182611061565b9050602081019050919050565b82818337600083830152505050565b600061114061113b846110ed565b6110d2565b90508281526020810184848401111561115c5761115b61105c565b5b61116784828561111e565b509392505050565b600082601f83011261118457611183611057565b5b813561119484826020860161112d565b91505092915050565b6111a681610fb3565b81146111b157600080fd5b50565b6000813590506111c38161119d565b92915050565b6000806000606084860312156111e2576111e161104d565b5b600084013567ffffffffffffffff811115611200576111ff611052565b5b61120c8682870161116f565b935050602061121d868287016111b4565b925050604061122e868287016111b4565b9150509250925092565b60008115159050919050565b61124d81611238565b82525050565b60006020820190506112686000830184611244565b92915050565b600080604083850312156112855761128461104d565b5b6000611293858286016111b4565b92505060206112a4858286016111b4565b9150509250929050565b6000602082840312156112c4576112c361104d565b5b60006112d2848285016111b4565b91505092915050565b600081519050919050565b600082825260208201905092915050565b60005b838110156113155780820151818401526020810190506112fa565b83811115611324576000848401525b50505050565b6000611335826112db565b61133f81856112e6565b935061134f8185602086016112f7565b61135881611061565b840191505092915050565b7f4e487b7100000000000000000000000000000000000000000000000000000000600052602160045260246000fd5b600381106113a3576113a2611363565b5b50565b60008190506113b482611392565b919050565b60006113c4826113a6565b9050919050565b6113d4816113b9565b82525050565b60006113e582610fe7565b9050919050565b6113f5816113da565b82525050565b600061016082019050611411600083018e610fbd565b8181036020830152611423818d61132a565b9050611432604083018c610fbd565b61143f606083018b6113cb565b61144c608083018a610fbd565b61145960a0830189610fbd565b61146660c08301886113ec565b61147360e0830187610fbd565b611481610100830186610fbd565b61148f610120830185610fbd565b61149d610140830184611244565b9c9b505050505050505050505050565b6114b681611007565b81146114c157600080fd5b50565b6000813590506114d3816114ad565b92915050565b6000602082840312156114ef576114ee61104d565b5b60006114fd848285016114c4565b91505092915050565b7f4f776e61626c653a2063616c6c6572206973206e6f7420746865206f776e6572600082015250565b600061153c6020836112e6565b915061154782611506565b602082019050919050565b6000602082019050818103600083015261156b8161152f565b9050919050565b7f5265656e7472616e637947756172643a207265656e7472616e742063616c6c00600082015250565b60006115a8601f836112e6565b91506115b382611572565b602082019050919050565b600060208201905081810360008301526115d78161159b565b9050919050565b7f4e487b7100000000000000000000000000000000000000000000000000000000600052601160045260246000fd5b600061161882610fb3565b915061162383610fb3565b9250827fffffffffffffffffffffffffffffffffffffffffffffffffffffffffffffffff03821115611658576116576115de565b5b828201905092915050565b600061166e82610fb3565b915061167983610fb3565b9250817fffffffffffffffffffffffffffffffffffffffffffffffffffffffffffffffff04831182151516156116b2576116b16115de565b5b828202905092915050565b7f506c65617365207375626d6974207468652061736b696e67207072696365206960008201527f6e206f7264657220746f20636f6d706c6574652074686520707572636861736560208201527f2e00000000000000000000000000000000000000000000000000000000000000604082015250565b600061173f6041836112e6565b915061174a826116bd565b606082019050919050565b6000602082019050818103600083015261176e81611732565b9050919050565b7f4e487b7100000000000000000000000000000000000000000000000000000000600052602260045260246000fd5b600060028204905060018216806117bc57607f821691505b602082108114156117d0576117cf611775565b5b50919050565b60006117e182610fb3565b91506117ec83610fb3565b9250828210156117ff576117fe6115de565b5b828203905092915050565b600060c08201905061181f6000830189610fbd565b8181036020830152611831818861132a565b90506118406040830187610fbd565b61184d6060830186610fbd565b61185a60808301856113ec565b61186760a0830184611244565b979650505050505050565b7f4f776e61626c653a206e6577206f776e657220697320746865207a65726f206160008201527f6464726573730000000000000000000000000000000000000000000000000000602082015250565b60006118ce6026836112e6565b91506118d982611872565b604082019050919050565b600060208201905081810360008301526118fd816118c1565b905091905056fea2646970667358221220c293220b7e5884a85980d7695c98467faa7096d741ca0cc875bad70fcf77bd4364736f6c634300080a0033",
  "immutableReferences": {},
  "source": "// SPDX-License-Identifier: GPL-3.0\npragma solidity >=0.7.0 <0.9.0;\n\nimport \"@openzeppelin/contracts/security/ReentrancyGuard.sol\";\nimport \"@openzeppelin/contracts/access/Ownable.sol\";\n\ncontract MarketPlace is ReentrancyGuard, Ownable {\n    uint public skuCount = 0;\n    uint public salesCount = 0; //to keep track of how many purchases are stored in the mapping\n\n    enum SaleState {\n        Started,\n        Running,\n        Ended\n    }\n    struct Item {\n        uint sku;\n        string itemName;\n        uint itemPrice;\n        SaleState state;\n        uint qty;\n        uint itemsSold;\n        address payable owner;\n        uint startBlock;\n        uint endBlock;\n        uint saleTotal;\n        bool purchased;\n    }\n    mapping(uint => Item) public items; // creates key value pair so we are able to retrieve an item based on its properties\n    \n    event LogSold(uint sku, string itemName, uint qty, uint itemPrice, address payable owner, bool purchased);\n    event LogForSale(uint sku); \n    \n    \n    modifier onSale(uint _sku){\n        require(items[_sku].startBlock <= block.number);\n        require(items[_sku].endBlock >= block.number);\n        require (items[_sku].state == SaleState.Running);\n        require (items[_sku].sku > 0);\n        _;\n    }\n    \n    modifier paidEnough (uint _itemPrice, uint qty) {\n        require(msg.value >= _itemPrice * qty, \"Please submit the asking price in order to complete the purchase.\");\n        _;\n    }\n    \n    \n    modifier checkValue (uint _sku, uint _qty) {\n        _;\n        uint _itemPrice = items[_sku].itemPrice;\n        uint amountToRefund = msg.value - (_itemPrice * _qty);\n        payable(msg.sender).transfer(amountToRefund);\n    }\n\n    \n    function createMarketItem(string memory _itemName, uint _itemPrice, uint _qty) payable public\n        nonReentrant returns (bool)\n    {\n      require(bytes(_itemName).length > 0);\n      require(_itemPrice > 0);\n      require(_qty > 0);\n      skuCount = skuCount + 1;\n        items[skuCount] = Item({ //adding Item to items mapping\n            sku: skuCount,\n            itemName: _itemName,\n            itemPrice: _itemPrice,\n            state: SaleState.Running,\n            qty: _qty,\n            itemsSold: 0,\n            owner: payable(msg.sender),\n            startBlock: block.number,\n            endBlock:  block.number + 1051200,\n            saleTotal: 0,\n            purchased: false\n            \n        });\n        emit LogForSale(skuCount);\n        return true;\n    }\n\n        function buyItem(uint _sku, uint qty) public payable // purchase qty = 3, stock items[_sku].qty =10\n            onSale(_sku)\n            paidEnough(items[_sku].itemPrice, qty)\n            checkValue(_sku,  qty)\n            nonReentrant\n        {\n          // fetch the item to buy\n            Item memory _item = items[skuCount];\n          // fetch the owner\n          address payable seller = _item.owner;\n          // require that the buyer is not the seller\n            require(seller != msg.sender);\n           // transfer ownership to the buyer\n           _item.owner = payable(msg.sender);\n            require(items[_sku].state == SaleState.Running);\n            require(qty <= items[_sku].qty);\n            items[_sku].qty -= qty;\n            items[_sku].itemsSold += qty;\n          // update the product in the mapping\n          items[skuCount] = _item;\n          // mark as purchased\n          items[_sku].purchased = true;\n          // pay the seller by sending them ether\n            uint totalPaid = items[_sku].itemPrice * qty;\n            seller.transfer(msg.value);\n            items[_sku].saleTotal += totalPaid;\n\n            emit LogSold(_sku, _item.itemName, qty, _item.itemPrice, payable(msg.sender), true);\n    }\n}",
  "sourcePath": "/Users/mouzayanalkhalil/supernovas/consensys/contracts/Marketplace.sol",
  "compiler": {
    "name": "solc",
    "version": "0.8.10+commit.fc410830.Emscripten.clang"
  },
  "schemaVersion": "3.4.3",
  "updatedAt": "2021-11-28T15:23:11.375Z",
  "networkType": "ethereum",
  "devdoc": {
    "kind": "dev",
    "methods": {
      "owner()": {
        "details": "Returns the address of the current owner."
      },
      "renounceOwnership()": {
        "details": "Leaves the contract without owner. It will not be possible to call `onlyOwner` functions anymore. Can only be called by the current owner. NOTE: Renouncing ownership will leave the contract without an owner, thereby removing any functionality that is only available to the owner."
      },
      "transferOwnership(address)": {
        "details": "Transfers ownership of the contract to a new account (`newOwner`). Can only be called by the current owner."
      }
    },
    "version": 1
  },
  "userdoc": {
    "kind": "user",
    "methods": {},
    "version": 1
  }
}