{
  "contractName": "MarketPlace",
  "abi": [
    {
      "anonymous": false,
      "inputs": [
        {
          "indexed": false,
          "internalType": "uint256",
          "name": "sku",
          "type": "uint256"
        }
      ],
      "name": "LogForSale",
      "type": "event"
    },
    {
      "anonymous": false,
      "inputs": [
        {
          "indexed": false,
          "internalType": "uint256",
          "name": "sku",
          "type": "uint256"
        },
        {
          "indexed": false,
          "internalType": "uint256",
          "name": "qty",
          "type": "uint256"
        },
        {
          "indexed": false,
          "internalType": "address",
          "name": "buyer",
          "type": "address"
        }
      ],
      "name": "LogSold",
      "type": "event"
    },
    {
      "anonymous": false,
      "inputs": [
        {
          "indexed": true,
          "internalType": "address",
          "name": "previousOwner",
          "type": "address"
        },
        {
          "indexed": true,
          "internalType": "address",
          "name": "newOwner",
          "type": "address"
        }
      ],
      "name": "OwnershipTransferred",
      "type": "event"
    },
    {
      "inputs": [
        {
          "internalType": "uint256",
          "name": "",
          "type": "uint256"
        }
      ],
      "name": "items",
      "outputs": [
        {
          "internalType": "uint256",
          "name": "sku",
          "type": "uint256"
        },
        {
          "internalType": "string",
          "name": "itemName",
          "type": "string"
        },
        {
          "internalType": "uint256",
          "name": "itemPrice",
          "type": "uint256"
        },
        {
          "internalType": "enum MarketPlace.SaleState",
          "name": "state",
          "type": "uint8"
        },
        {
          "internalType": "uint256",
          "name": "qty",
          "type": "uint256"
        },
        {
          "internalType": "uint256",
          "name": "itemsSold",
          "type": "uint256"
        },
        {
          "internalType": "address payable",
          "name": "seller",
          "type": "address"
        },
        {
          "internalType": "uint256",
          "name": "startBlock",
          "type": "uint256"
        },
        {
          "internalType": "uint256",
          "name": "endBlock",
          "type": "uint256"
        },
        {
          "internalType": "uint256",
          "name": "saleTotal",
          "type": "uint256"
        }
      ],
      "stateMutability": "view",
      "type": "function"
    },
    {
      "inputs": [],
      "name": "owner",
      "outputs": [
        {
          "internalType": "address",
          "name": "",
          "type": "address"
        }
      ],
      "stateMutability": "view",
      "type": "function"
    },
    {
      "inputs": [
        {
          "internalType": "address",
          "name": "",
          "type": "address"
        }
      ],
      "name": "purchasedAmt",
      "outputs": [
        {
          "internalType": "uint256",
          "name": "",
          "type": "uint256"
        }
      ],
      "stateMutability": "view",
      "type": "function"
    },
    {
      "inputs": [],
      "name": "renounceOwnership",
      "outputs": [],
      "stateMutability": "nonpayable",
      "type": "function"
    },
    {
      "inputs": [],
      "name": "skuCount",
      "outputs": [
        {
          "internalType": "uint256",
          "name": "",
          "type": "uint256"
        }
      ],
      "stateMutability": "view",
      "type": "function"
    },
    {
      "inputs": [
        {
          "internalType": "address",
          "name": "newOwner",
          "type": "address"
        }
      ],
      "name": "transferOwnership",
      "outputs": [],
      "stateMutability": "nonpayable",
      "type": "function"
    },
    {
      "inputs": [
        {
          "internalType": "string",
          "name": "_itemName",
          "type": "string"
        },
        {
          "internalType": "uint256",
          "name": "_itemPrice",
          "type": "uint256"
        },
        {
          "internalType": "uint256",
          "name": "_qty",
          "type": "uint256"
        }
      ],
      "name": "createMarketItem",
      "outputs": [
        {
          "internalType": "bool",
          "name": "",
          "type": "bool"
        }
      ],
      "stateMutability": "payable",
      "type": "function"
    },
    {
      "inputs": [
        {
          "internalType": "uint256",
          "name": "_sku",
          "type": "uint256"
        },
        {
          "internalType": "uint256",
          "name": "qty",
          "type": "uint256"
        }
      ],
      "name": "buyItem",
      "outputs": [],
      "stateMutability": "payable",
      "type": "function"
    }
  ],
  "bytecode": "0x6080604052600060025534801561001557600080fd5b50600160008190555061003a61002f61003f60201b60201c565b61004760201b60201c565b61010d565b600033905090565b6000600160009054906101000a900473ffffffffffffffffffffffffffffffffffffffff16905081600160006101000a81548173ffffffffffffffffffffffffffffffffffffffff021916908373ffffffffffffffffffffffffffffffffffffffff1602179055508173ffffffffffffffffffffffffffffffffffffffff168173ffffffffffffffffffffffffffffffffffffffff167f8be0079c531659141344cd1fd0a4f28419497f9722a3daafe3b4186f6b6457e060405160405180910390a35050565b6115758061011c6000396000f3fe60806040526004361061007b5760003560e01c80639979c0091161004e5780639979c0091461011d578063bfb231d214610139578063f2fde38b1461017f578063fab3d88d146101a85761007b565b80632270247314610080578063715018a6146100ab5780638da5cb5b146100c2578063991ddc2f146100ed575b600080fd5b34801561008c57600080fd5b506100956101e5565b6040516100a29190610c47565b60405180910390f35b3480156100b757600080fd5b506100c06101eb565b005b3480156100ce57600080fd5b506100d7610273565b6040516100e49190610ca3565b60405180910390f35b61010760048036038101906101029190610e44565b61029d565b6040516101149190610ece565b60405180910390f35b61013760048036038101906101329190610ee9565b6104c3565b005b34801561014557600080fd5b50610160600480360381019061015b9190610f29565b6108a4565b6040516101769a99989796959493929190611076565b60405180910390f35b34801561018b57600080fd5b506101a660048036038101906101a19190611145565b6109ad565b005b3480156101b457600080fd5b506101cf60048036038101906101ca9190611145565b610aa5565b6040516101dc9190610c47565b60405180910390f35b60025481565b6101f3610abd565b73ffffffffffffffffffffffffffffffffffffffff16610211610273565b73ffffffffffffffffffffffffffffffffffffffff1614610267576040517f08c379a000000000000000000000000000000000000000000000000000000000815260040161025e906111be565b60405180910390fd5b6102716000610ac5565b565b6000600160009054906101000a900473ffffffffffffffffffffffffffffffffffffffff16905090565b6000600260005414156102e5576040517f08c379a00000000000000000000000000000000000000000000000000000000081526004016102dc9061122a565b60405180910390fd5b600260008190555060405180610140016040528060025481526020018581526020018481526020016001600281111561032157610320610fde565b5b8152602001838152602001600081526020013373ffffffffffffffffffffffffffffffffffffffff16815260200143815260200162100a40436103649190611279565b815260200160008152506003600060025481526020019081526020016000206000820151816000015560208201518160010190805190602001906103a9929190610b8b565b506040820151816002015560608201518160030160006101000a81548160ff021916908360028111156103df576103de610fde565b5b02179055506080820151816004015560a0820151816005015560c08201518160060160006101000a81548173ffffffffffffffffffffffffffffffffffffffff021916908373ffffffffffffffffffffffffffffffffffffffff16021790555060e08201518160070155610100820151816008015561012082015181600901559050507f4627c48065af2a9648cbecdd4b9da340c00e501243cd49a8a71c30c987e8b7616002546040516104939190610c47565b60405180910390a160016002546104aa9190611279565b6002819055506001905060016000819055509392505050565b8143600360008381526020019081526020016000206007015411156104e757600080fd5b436003600083815260200190815260200160002060080154101561050a57600080fd5b6001600281111561051e5761051d610fde565b5b6003600083815260200190815260200160002060030160009054906101000a900460ff16600281111561055457610553610fde565b5b1461055e57600080fd5b600060036000838152602001908152602001600020600001541161058157600080fd5b60036000848152602001908152602001600020600201548280826105a591906112cf565b3410156105e7576040517f08c379a00000000000000000000000000000000000000000000000000000000081526004016105de906113c1565b60405180910390fd5b84846002600054141561062f576040517f08c379a00000000000000000000000000000000000000000000000000000000081526004016106269061122a565b60405180910390fd5b60026000819055506001600281111561064b5761064a610fde565b5b6003600089815260200190815260200160002060030160009054906101000a900460ff16600281111561068157610680610fde565b5b1461068b57600080fd5b60036000888152602001908152602001600020600401548611156106ae57600080fd5b856003600089815260200190815260200160002060040160008282546106d491906113e1565b92505081905550856003600089815260200190815260200160002060050160008282546107019190611279565b92505081905550600086600360008a81526020019081526020016000206002015461072c91906112cf565b90506003600089815260200190815260200160002060060160009054906101000a900473ffffffffffffffffffffffffffffffffffffffff1673ffffffffffffffffffffffffffffffffffffffff166108fc829081150290604051600060405180830381858888f193505050501580156107aa573d6000803e3d6000fd5b5080600360008a815260200190815260200160002060090160008282546107d19190611279565b925050819055507f8f3b8e2afb709a56cd086b1a4e162d1ed7d0f7a69d431f68fd014d08b87e50b288883360405161080b93929190611415565b60405180910390a15060016000819055506000600360008481526020019081526020016000206002015490506000828261084591906112cf565b3461085091906113e1565b90503373ffffffffffffffffffffffffffffffffffffffff166108fc829081150290604051600060405180830381858888f19350505050158015610898573d6000803e3d6000fd5b50505050505050505050565b60036020528060005260406000206000915090508060000154908060010180546108cd9061147b565b80601f01602080910402602001604051908101604052809291908181526020018280546108f99061147b565b80156109465780601f1061091b57610100808354040283529160200191610946565b820191906000526020600020905b81548152906001019060200180831161092957829003601f168201915b5050505050908060020154908060030160009054906101000a900460ff16908060040154908060050154908060060160009054906101000a900473ffffffffffffffffffffffffffffffffffffffff1690806007015490806008015490806009015490508a565b6109b5610abd565b73ffffffffffffffffffffffffffffffffffffffff166109d3610273565b73ffffffffffffffffffffffffffffffffffffffff1614610a29576040517f08c379a0000000000000000000000000000000000000000000000000000000008152600401610a20906111be565b60405180910390fd5b600073ffffffffffffffffffffffffffffffffffffffff168173ffffffffffffffffffffffffffffffffffffffff161415610a99576040517f08c379a0000000000000000000000000000000000000000000000000000000008152600401610a909061151f565b60405180910390fd5b610aa281610ac5565b50565b60046020528060005260406000206000915090505481565b600033905090565b6000600160009054906101000a900473ffffffffffffffffffffffffffffffffffffffff16905081600160006101000a81548173ffffffffffffffffffffffffffffffffffffffff021916908373ffffffffffffffffffffffffffffffffffffffff1602179055508173ffffffffffffffffffffffffffffffffffffffff168173ffffffffffffffffffffffffffffffffffffffff167f8be0079c531659141344cd1fd0a4f28419497f9722a3daafe3b4186f6b6457e060405160405180910390a35050565b828054610b979061147b565b90600052602060002090601f016020900481019282610bb95760008555610c00565b82601f10610bd257805160ff1916838001178555610c00565b82800160010185558215610c00579182015b82811115610bff578251825591602001919060010190610be4565b5b509050610c0d9190610c11565b5090565b5b80821115610c2a576000816000905550600101610c12565b5090565b6000819050919050565b610c4181610c2e565b82525050565b6000602082019050610c5c6000830184610c38565b92915050565b600073ffffffffffffffffffffffffffffffffffffffff82169050919050565b6000610c8d82610c62565b9050919050565b610c9d81610c82565b82525050565b6000602082019050610cb86000830184610c94565b92915050565b6000604051905090565b600080fd5b600080fd5b600080fd5b600080fd5b6000601f19601f8301169050919050565b7f4e487b7100000000000000000000000000000000000000000000000000000000600052604160045260246000fd5b610d2582610cdc565b810181811067ffffffffffffffff82111715610d4457610d43610ced565b5b80604052505050565b6000610d57610cbe565b9050610d638282610d1c565b919050565b600067ffffffffffffffff821115610d8357610d82610ced565b5b610d8c82610cdc565b9050602081019050919050565b82818337600083830152505050565b6000610dbb610db684610d68565b610d4d565b905082815260208101848484011115610dd757610dd6610cd7565b5b610de2848285610d99565b509392505050565b600082601f830112610dff57610dfe610cd2565b5b8135610e0f848260208601610da8565b91505092915050565b610e2181610c2e565b8114610e2c57600080fd5b50565b600081359050610e3e81610e18565b92915050565b600080600060608486031215610e5d57610e5c610cc8565b5b600084013567ffffffffffffffff811115610e7b57610e7a610ccd565b5b610e8786828701610dea565b9350506020610e9886828701610e2f565b9250506040610ea986828701610e2f565b9150509250925092565b60008115159050919050565b610ec881610eb3565b82525050565b6000602082019050610ee36000830184610ebf565b92915050565b60008060408385031215610f0057610eff610cc8565b5b6000610f0e85828601610e2f565b9250506020610f1f85828601610e2f565b9150509250929050565b600060208284031215610f3f57610f3e610cc8565b5b6000610f4d84828501610e2f565b91505092915050565b600081519050919050565b600082825260208201905092915050565b60005b83811015610f90578082015181840152602081019050610f75565b83811115610f9f576000848401525b50505050565b6000610fb082610f56565b610fba8185610f61565b9350610fca818560208601610f72565b610fd381610cdc565b840191505092915050565b7f4e487b7100000000000000000000000000000000000000000000000000000000600052602160045260246000fd5b6003811061101e5761101d610fde565b5b50565b600081905061102f8261100d565b919050565b600061103f82611021565b9050919050565b61104f81611034565b82525050565b600061106082610c62565b9050919050565b61107081611055565b82525050565b60006101408201905061108c600083018d610c38565b818103602083015261109e818c610fa5565b90506110ad604083018b610c38565b6110ba606083018a611046565b6110c76080830189610c38565b6110d460a0830188610c38565b6110e160c0830187611067565b6110ee60e0830186610c38565b6110fc610100830185610c38565b61110a610120830184610c38565b9b9a5050505050505050505050565b61112281610c82565b811461112d57600080fd5b50565b60008135905061113f81611119565b92915050565b60006020828403121561115b5761115a610cc8565b5b600061116984828501611130565b91505092915050565b7f4f776e61626c653a2063616c6c6572206973206e6f7420746865206f776e6572600082015250565b60006111a8602083610f61565b91506111b382611172565b602082019050919050565b600060208201905081810360008301526111d78161119b565b9050919050565b7f5265656e7472616e637947756172643a207265656e7472616e742063616c6c00600082015250565b6000611214601f83610f61565b915061121f826111de565b602082019050919050565b6000602082019050818103600083015261124381611207565b9050919050565b7f4e487b7100000000000000000000000000000000000000000000000000000000600052601160045260246000fd5b600061128482610c2e565b915061128f83610c2e565b9250827fffffffffffffffffffffffffffffffffffffffffffffffffffffffffffffffff038211156112c4576112c361124a565b5b828201905092915050565b60006112da82610c2e565b91506112e583610c2e565b9250817fffffffffffffffffffffffffffffffffffffffffffffffffffffffffffffffff048311821515161561131e5761131d61124a565b5b828202905092915050565b7f506c65617365207375626d6974207468652061736b696e67207072696365206960008201527f6e206f7264657220746f20636f6d706c6574652074686520707572636861736560208201527f2e00000000000000000000000000000000000000000000000000000000000000604082015250565b60006113ab604183610f61565b91506113b682611329565b606082019050919050565b600060208201905081810360008301526113da8161139e565b9050919050565b60006113ec82610c2e565b91506113f783610c2e565b92508282101561140a5761140961124a565b5b828203905092915050565b600060608201905061142a6000830186610c38565b6114376020830185610c38565b6114446040830184610c94565b949350505050565b7f4e487b7100000000000000000000000000000000000000000000000000000000600052602260045260246000fd5b6000600282049050600182168061149357607f821691505b602082108114156114a7576114a661144c565b5b50919050565b7f4f776e61626c653a206e6577206f776e657220697320746865207a65726f206160008201527f6464726573730000000000000000000000000000000000000000000000000000602082015250565b6000611509602683610f61565b9150611514826114ad565b604082019050919050565b60006020820190508181036000830152611538816114fc565b905091905056fea264697066735822122093718746240c3163ea0249db968f404ca67def3c6fb8e8a3a6368968468cc37d64736f6c634300080a0033",
  "immutableReferences": {},
  "source": "// SPDX-License-Identifier: GPL-3.0\npragma solidity >=0.7.0 <0.9.0;\n\nimport \"@openzeppelin/contracts/security/ReentrancyGuard.sol\";\nimport \"@openzeppelin/contracts/access/Ownable.sol\";\n\ncontract MarketPlace is ReentrancyGuard, Ownable {\n    uint public skuCount = 0;\n\n    enum SaleState {\n        Started,\n        Running,\n        Ended\n    }\n    struct Item {\n        uint sku;\n        string itemName;\n        uint itemPrice;\n        SaleState state;\n        uint qty;\n        uint itemsSold;\n        address payable seller;\n        uint startBlock;\n        uint endBlock;\n        uint saleTotal;\n    }\n    mapping(uint => Item) public items; // creates key value pair so we are able to retrieve an item based on its properties\n    \n    event LogSold(uint sku, uint qty, address buyer);\n    event LogForSale(uint sku); \n    \n    mapping(address => uint) public purchasedAmt; // how many did each address buy\n    \n    \n    modifier onSale(uint _sku){\n        require(items[_sku].startBlock <= block.number);\n        require(items[_sku].endBlock >= block.number);\n        require (items[_sku].state == SaleState.Running);\n        require (items[_sku].sku > 0);\n        _;\n    }\n    \n    modifier paidEnough (uint _itemPrice, uint qty) {\n        require(msg.value >= _itemPrice * qty, \"Please submit the asking price in order to complete the purchase.\");\n        _;\n    }\n    \n    \n    modifier checkValue (uint _sku, uint _qty) {\n        _;\n        uint _itemPrice = items[_sku].itemPrice;\n        uint amountToRefund = msg.value - (_itemPrice * _qty);\n        payable(msg.sender).transfer(amountToRefund);\n    }\n\n    \n    function createMarketItem(string memory _itemName, uint _itemPrice, uint _qty) payable public\n        nonReentrant returns (bool)\n    {\n        items[skuCount] = Item({\n            sku: skuCount,\n            itemName: _itemName,\n            itemPrice: _itemPrice,\n            state: SaleState.Running,\n            qty: _qty,\n            itemsSold: 0,\n            seller: payable(msg.sender),\n            startBlock: block.number,\n            endBlock:  block.number + 1051200,\n            saleTotal: 0\n            \n        });\n        emit LogForSale(skuCount);\n        skuCount = skuCount + 1;\n        return true;\n    }\n    \n        function buyItem(uint _sku, uint qty) public payable // purchase qty = 3, stock items[_sku].qty =10\n            onSale(_sku)\n            \n            paidEnough(items[_sku].itemPrice, qty)\n            checkValue(_sku,  qty)\n            nonReentrant\n        {\n            require(items[_sku].state == SaleState.Running);\n            require(qty <= items[_sku].qty);\n            items[_sku].qty -= qty;\n            items[_sku].itemsSold += qty;\n            //items[_sku].buyer[msg.sender] += qty; // updating the total amount that msg.sender has purchased\n             \n            uint totalPaid = items[_sku].itemPrice * qty;\n            items[_sku].seller.transfer(totalPaid);\n            items[_sku].saleTotal += totalPaid;\n             \n            emit LogSold(_sku, qty, msg.sender);\n        }\n}",
  "sourcePath": "/Users/mouzayanalkhalil/supernovas/consensys/contracts/Marketplace.sol",
  "compiler": {
    "name": "solc",
    "version": "0.8.10+commit.fc410830.Emscripten.clang"
  },
  "schemaVersion": "3.4.3",
  "updatedAt": "2021-11-20T23:09:06.838Z",
  "devdoc": {
    "kind": "dev",
    "methods": {
      "owner()": {
        "details": "Returns the address of the current owner."
      },
      "renounceOwnership()": {
        "details": "Leaves the contract without owner. It will not be possible to call `onlyOwner` functions anymore. Can only be called by the current owner. NOTE: Renouncing ownership will leave the contract without an owner, thereby removing any functionality that is only available to the owner."
      },
      "transferOwnership(address)": {
        "details": "Transfers ownership of the contract to a new account (`newOwner`). Can only be called by the current owner."
      }
    },
    "version": 1
  },
  "userdoc": {
    "kind": "user",
    "methods": {},
    "version": 1
  }
}