{
  "contractName": "MarketPlace",
  "abi": [
    {
      "anonymous": false,
      "inputs": [
        {
          "indexed": false,
          "internalType": "uint256",
          "name": "sku",
          "type": "uint256"
        }
      ],
      "name": "LogForSale",
      "type": "event"
    },
    {
      "anonymous": false,
      "inputs": [
        {
          "indexed": false,
          "internalType": "uint256",
          "name": "sku",
          "type": "uint256"
        },
        {
          "indexed": false,
          "internalType": "string",
          "name": "itemName",
          "type": "string"
        },
        {
          "indexed": false,
          "internalType": "uint256",
          "name": "qty",
          "type": "uint256"
        },
        {
          "indexed": false,
          "internalType": "uint256",
          "name": "itemPrice",
          "type": "uint256"
        },
        {
          "indexed": false,
          "internalType": "address payable",
          "name": "owner",
          "type": "address"
        },
        {
          "indexed": false,
          "internalType": "bool",
          "name": "purchased",
          "type": "bool"
        }
      ],
      "name": "LogSold",
      "type": "event"
    },
    {
      "anonymous": false,
      "inputs": [
        {
          "indexed": true,
          "internalType": "address",
          "name": "previousOwner",
          "type": "address"
        },
        {
          "indexed": true,
          "internalType": "address",
          "name": "newOwner",
          "type": "address"
        }
      ],
      "name": "OwnershipTransferred",
      "type": "event"
    },
    {
      "inputs": [
        {
          "internalType": "uint256",
          "name": "",
          "type": "uint256"
        }
      ],
      "name": "items",
      "outputs": [
        {
          "internalType": "uint256",
          "name": "sku",
          "type": "uint256"
        },
        {
          "internalType": "string",
          "name": "itemName",
          "type": "string"
        },
        {
          "internalType": "uint256",
          "name": "itemPrice",
          "type": "uint256"
        },
        {
          "internalType": "enum MarketPlace.SaleState",
          "name": "state",
          "type": "uint8"
        },
        {
          "internalType": "uint256",
          "name": "qty",
          "type": "uint256"
        },
        {
          "internalType": "uint256",
          "name": "itemsSold",
          "type": "uint256"
        },
        {
          "internalType": "address payable",
          "name": "owner",
          "type": "address"
        },
        {
          "internalType": "uint256",
          "name": "startBlock",
          "type": "uint256"
        },
        {
          "internalType": "uint256",
          "name": "endBlock",
          "type": "uint256"
        },
        {
          "internalType": "uint256",
          "name": "saleTotal",
          "type": "uint256"
        },
        {
          "internalType": "bool",
          "name": "purchased",
          "type": "bool"
        }
      ],
      "stateMutability": "view",
      "type": "function",
      "constant": true
    },
    {
      "inputs": [],
      "name": "owner",
      "outputs": [
        {
          "internalType": "address",
          "name": "",
          "type": "address"
        }
      ],
      "stateMutability": "view",
      "type": "function",
      "constant": true
    },
    {
      "inputs": [],
      "name": "renounceOwnership",
      "outputs": [],
      "stateMutability": "nonpayable",
      "type": "function"
    },
    {
      "inputs": [],
      "name": "salesCount",
      "outputs": [
        {
          "internalType": "uint256",
          "name": "",
          "type": "uint256"
        }
      ],
      "stateMutability": "view",
      "type": "function",
      "constant": true
    },
    {
      "inputs": [],
      "name": "skuCount",
      "outputs": [
        {
          "internalType": "uint256",
          "name": "",
          "type": "uint256"
        }
      ],
      "stateMutability": "view",
      "type": "function",
      "constant": true
    },
    {
      "inputs": [
        {
          "internalType": "address",
          "name": "newOwner",
          "type": "address"
        }
      ],
      "name": "transferOwnership",
      "outputs": [],
      "stateMutability": "nonpayable",
      "type": "function"
    },
    {
      "inputs": [
        {
          "internalType": "string",
          "name": "_itemName",
          "type": "string"
        },
        {
          "internalType": "uint256",
          "name": "_itemPrice",
          "type": "uint256"
        },
        {
          "internalType": "uint256",
          "name": "_qty",
          "type": "uint256"
        }
      ],
      "name": "createMarketItem",
      "outputs": [
        {
          "internalType": "bool",
          "name": "",
          "type": "bool"
        }
      ],
      "stateMutability": "payable",
      "type": "function",
      "payable": true
    },
    {
      "inputs": [
        {
          "internalType": "uint256",
          "name": "_sku",
          "type": "uint256"
        },
        {
          "internalType": "uint256",
          "name": "qty",
          "type": "uint256"
        },
        {
          "internalType": "uint256",
          "name": "price",
          "type": "uint256"
        }
      ],
      "name": "buyItem",
      "outputs": [],
      "stateMutability": "payable",
      "type": "function",
      "payable": true
    }
  ],
  "bytecode": "0x60806040526000600255600060035534801561001a57600080fd5b50600160008190555061003f61003461004460201b60201c565b61004c60201b60201c565b610112565b600033905090565b6000600160009054906101000a900473ffffffffffffffffffffffffffffffffffffffff16905081600160006101000a81548173ffffffffffffffffffffffffffffffffffffffff021916908373ffffffffffffffffffffffffffffffffffffffff1602179055508173ffffffffffffffffffffffffffffffffffffffff168173ffffffffffffffffffffffffffffffffffffffff167f8be0079c531659141344cd1fd0a4f28419497f9722a3daafe3b4186f6b6457e060405160405180910390a35050565b61194e806101216000396000f3fe60806040526004361061007b5760003560e01c80638da5cb5b1161004e5780638da5cb5b14610109578063991ddc2f14610134578063bfb231d214610164578063f2fde38b146101ab5761007b565b80631f6a831814610080578063227024731461009c578063682789a8146100c7578063715018a6146100f2575b600080fd5b61009a60048036038101906100959190610ffe565b6101d4565b005b3480156100a857600080fd5b506100b16108f9565b6040516100be9190611060565b60405180910390f35b3480156100d357600080fd5b506100dc6108ff565b6040516100e99190611060565b60405180910390f35b3480156100fe57600080fd5b50610107610905565b005b34801561011557600080fd5b5061011e61098d565b60405161012b91906110bc565b60405180910390f35b61014e6004803603810190610149919061121d565b6109b7565b60405161015b91906112a7565b60405180910390f35b34801561017057600080fd5b5061018b600480360381019061018691906112c2565b610c2f565b6040516101a29b9a9998979695949392919061140f565b60405180910390f35b3480156101b757600080fd5b506101d260048036038101906101cd91906114ed565b610d4b565b005b8243600460008381526020019081526020016000206007015411156101f857600080fd5b436004600083815260200190815260200160002060080154101561021b57600080fd5b6001600281111561022f5761022e611377565b5b6004600083815260200190815260200160002060030160009054906101000a900460ff16600281111561026557610264611377565b5b1461026f57600080fd5b600060046000838152602001908152602001600020600001541161029257600080fd5b60046000858152602001908152602001600020600201548380826102b69190611549565b3410156102f8576040517f08c379a00000000000000000000000000000000000000000000000000000000081526004016102ef9061163b565b60405180910390fd5b858560026000541415610340576040517f08c379a0000000000000000000000000000000000000000000000000000000008152600401610337906116a7565b60405180910390fd5b600260008190555060006004600060025481526020019081526020016000206040518061016001604052908160008201548152602001600182018054610385906116f6565b80601f01602080910402602001604051908101604052809291908181526020018280546103b1906116f6565b80156103fe5780601f106103d3576101008083540402835291602001916103fe565b820191906000526020600020905b8154815290600101906020018083116103e157829003601f168201915b50505050508152602001600282015481526020016003820160009054906101000a900460ff16600281111561043657610435611377565b5b600281111561044857610447611377565b5b815260200160048201548152602001600582015481526020016006820160009054906101000a900473ffffffffffffffffffffffffffffffffffffffff1673ffffffffffffffffffffffffffffffffffffffff1673ffffffffffffffffffffffffffffffffffffffff168152602001600782015481526020016008820154815260200160098201548152602001600a820160009054906101000a900460ff161515151581525050905060008160c0015190503373ffffffffffffffffffffffffffffffffffffffff168173ffffffffffffffffffffffffffffffffffffffff16141561053357600080fd5b338260c0019073ffffffffffffffffffffffffffffffffffffffff16908173ffffffffffffffffffffffffffffffffffffffff16815250506001600281111561057f5761057e611377565b5b600460008c815260200190815260200160002060030160009054906101000a900460ff1660028111156105b5576105b4611377565b5b146105bf57600080fd5b600460008b8152602001908152602001600020600401548911156105e257600080fd5b88600460008c815260200190815260200160002060040160008282546106089190611728565b9250508190555088600460008c81526020019081526020016000206005016000828254610635919061175c565b9250508190555081600460006002548152602001908152602001600020600082015181600001556020820151816001019080519060200190610678929190610f11565b506040820151816002015560608201518160030160006101000a81548160ff021916908360028111156106ae576106ad611377565b5b02179055506080820151816004015560a0820151816005015560c08201518160060160006101000a81548173ffffffffffffffffffffffffffffffffffffffff021916908373ffffffffffffffffffffffffffffffffffffffff16021790555060e082015181600701556101008201518160080155610120820151816009015561014082015181600a0160006101000a81548160ff0219169083151502179055509050506001600460008c8152602001908152602001600020600a0160006101000a81548160ff021916908315150217905550600089600460008d8152602001908152602001600020600201546107a59190611549565b90508173ffffffffffffffffffffffffffffffffffffffff166108fc349081150290604051600060405180830381858888f193505050501580156107ed573d6000803e3d6000fd5b5080600460008d81526020019081526020016000206009016000828254610814919061175c565b925050819055507f187c55416f37cfcc2c3a720ea22e07740a61deeb28b492aee9466a7c41b9f9838b84602001518c866040015133600160405161085d969594939291906117b2565b60405180910390a15050506001600081905550600060046000848152602001908152602001600020600201549050600082826108999190611549565b346108a49190611728565b90503373ffffffffffffffffffffffffffffffffffffffff166108fc829081150290604051600060405180830381858888f193505050501580156108ec573d6000803e3d6000fd5b5050505050505050505050565b60025481565b60035481565b61090d610e43565b73ffffffffffffffffffffffffffffffffffffffff1661092b61098d565b73ffffffffffffffffffffffffffffffffffffffff1614610981576040517f08c379a000000000000000000000000000000000000000000000000000000000815260040161097890611866565b60405180910390fd5b61098b6000610e4b565b565b6000600160009054906101000a900473ffffffffffffffffffffffffffffffffffffffff16905090565b6000600260005414156109ff576040517f08c379a00000000000000000000000000000000000000000000000000000000081526004016109f6906116a7565b60405180910390fd5b60026000819055506000845111610a1557600080fd5b60008311610a2257600080fd5b60008211610a2f57600080fd5b6001600254610a3e919061175c565b600281905550604051806101600160405280600254815260200185815260200184815260200160016002811115610a7857610a77611377565b5b8152602001838152602001600081526020013373ffffffffffffffffffffffffffffffffffffffff16815260200143815260200162100a4043610abb919061175c565b81526020016000815260200160001515815250600460006002548152602001908152602001600020600082015181600001556020820151816001019080519060200190610b09929190610f11565b506040820151816002015560608201518160030160006101000a81548160ff02191690836002811115610b3f57610b3e611377565b5b02179055506080820151816004015560a0820151816005015560c08201518160060160006101000a81548173ffffffffffffffffffffffffffffffffffffffff021916908373ffffffffffffffffffffffffffffffffffffffff16021790555060e082015181600701556101008201518160080155610120820151816009015561014082015181600a0160006101000a81548160ff0219169083151502179055509050507f4627c48065af2a9648cbecdd4b9da340c00e501243cd49a8a71c30c987e8b761600254604051610c149190611060565b60405180910390a16001905060016000819055509392505050565b6004602052806000526040600020600091509050806000015490806001018054610c58906116f6565b80601f0160208091040260200160405190810160405280929190818152602001828054610c84906116f6565b8015610cd15780601f10610ca657610100808354040283529160200191610cd1565b820191906000526020600020905b815481529060010190602001808311610cb457829003601f168201915b5050505050908060020154908060030160009054906101000a900460ff16908060040154908060050154908060060160009054906101000a900473ffffffffffffffffffffffffffffffffffffffff169080600701549080600801549080600901549080600a0160009054906101000a900460ff1690508b565b610d53610e43565b73ffffffffffffffffffffffffffffffffffffffff16610d7161098d565b73ffffffffffffffffffffffffffffffffffffffff1614610dc7576040517f08c379a0000000000000000000000000000000000000000000000000000000008152600401610dbe90611866565b60405180910390fd5b600073ffffffffffffffffffffffffffffffffffffffff168173ffffffffffffffffffffffffffffffffffffffff161415610e37576040517f08c379a0000000000000000000000000000000000000000000000000000000008152600401610e2e906118f8565b60405180910390fd5b610e4081610e4b565b50565b600033905090565b6000600160009054906101000a900473ffffffffffffffffffffffffffffffffffffffff16905081600160006101000a81548173ffffffffffffffffffffffffffffffffffffffff021916908373ffffffffffffffffffffffffffffffffffffffff1602179055508173ffffffffffffffffffffffffffffffffffffffff168173ffffffffffffffffffffffffffffffffffffffff167f8be0079c531659141344cd1fd0a4f28419497f9722a3daafe3b4186f6b6457e060405160405180910390a35050565b828054610f1d906116f6565b90600052602060002090601f016020900481019282610f3f5760008555610f86565b82601f10610f5857805160ff1916838001178555610f86565b82800160010185558215610f86579182015b82811115610f85578251825591602001919060010190610f6a565b5b509050610f939190610f97565b5090565b5b80821115610fb0576000816000905550600101610f98565b5090565b6000604051905090565b600080fd5b600080fd5b6000819050919050565b610fdb81610fc8565b8114610fe657600080fd5b50565b600081359050610ff881610fd2565b92915050565b60008060006060848603121561101757611016610fbe565b5b600061102586828701610fe9565b935050602061103686828701610fe9565b925050604061104786828701610fe9565b9150509250925092565b61105a81610fc8565b82525050565b60006020820190506110756000830184611051565b92915050565b600073ffffffffffffffffffffffffffffffffffffffff82169050919050565b60006110a68261107b565b9050919050565b6110b68161109b565b82525050565b60006020820190506110d160008301846110ad565b92915050565b600080fd5b600080fd5b6000601f19601f8301169050919050565b7f4e487b7100000000000000000000000000000000000000000000000000000000600052604160045260246000fd5b61112a826110e1565b810181811067ffffffffffffffff82111715611149576111486110f2565b5b80604052505050565b600061115c610fb4565b90506111688282611121565b919050565b600067ffffffffffffffff821115611188576111876110f2565b5b611191826110e1565b9050602081019050919050565b82818337600083830152505050565b60006111c06111bb8461116d565b611152565b9050828152602081018484840111156111dc576111db6110dc565b5b6111e784828561119e565b509392505050565b600082601f830112611204576112036110d7565b5b81356112148482602086016111ad565b91505092915050565b60008060006060848603121561123657611235610fbe565b5b600084013567ffffffffffffffff81111561125457611253610fc3565b5b611260868287016111ef565b935050602061127186828701610fe9565b925050604061128286828701610fe9565b9150509250925092565b60008115159050919050565b6112a18161128c565b82525050565b60006020820190506112bc6000830184611298565b92915050565b6000602082840312156112d8576112d7610fbe565b5b60006112e684828501610fe9565b91505092915050565b600081519050919050565b600082825260208201905092915050565b60005b8381101561132957808201518184015260208101905061130e565b83811115611338576000848401525b50505050565b6000611349826112ef565b61135381856112fa565b935061136381856020860161130b565b61136c816110e1565b840191505092915050565b7f4e487b7100000000000000000000000000000000000000000000000000000000600052602160045260246000fd5b600381106113b7576113b6611377565b5b50565b60008190506113c8826113a6565b919050565b60006113d8826113ba565b9050919050565b6113e8816113cd565b82525050565b60006113f98261107b565b9050919050565b611409816113ee565b82525050565b600061016082019050611425600083018e611051565b8181036020830152611437818d61133e565b9050611446604083018c611051565b611453606083018b6113df565b611460608083018a611051565b61146d60a0830189611051565b61147a60c0830188611400565b61148760e0830187611051565b611495610100830186611051565b6114a3610120830185611051565b6114b1610140830184611298565b9c9b505050505050505050505050565b6114ca8161109b565b81146114d557600080fd5b50565b6000813590506114e7816114c1565b92915050565b60006020828403121561150357611502610fbe565b5b6000611511848285016114d8565b91505092915050565b7f4e487b7100000000000000000000000000000000000000000000000000000000600052601160045260246000fd5b600061155482610fc8565b915061155f83610fc8565b9250817fffffffffffffffffffffffffffffffffffffffffffffffffffffffffffffffff04831182151516156115985761159761151a565b5b828202905092915050565b7f506c65617365207375626d6974207468652061736b696e67207072696365206960008201527f6e206f7264657220746f20636f6d706c6574652074686520707572636861736560208201527f2e00000000000000000000000000000000000000000000000000000000000000604082015250565b60006116256041836112fa565b9150611630826115a3565b606082019050919050565b6000602082019050818103600083015261165481611618565b9050919050565b7f5265656e7472616e637947756172643a207265656e7472616e742063616c6c00600082015250565b6000611691601f836112fa565b915061169c8261165b565b602082019050919050565b600060208201905081810360008301526116c081611684565b9050919050565b7f4e487b7100000000000000000000000000000000000000000000000000000000600052602260045260246000fd5b6000600282049050600182168061170e57607f821691505b60208210811415611722576117216116c7565b5b50919050565b600061173382610fc8565b915061173e83610fc8565b9250828210156117515761175061151a565b5b828203905092915050565b600061176782610fc8565b915061177283610fc8565b9250827fffffffffffffffffffffffffffffffffffffffffffffffffffffffffffffffff038211156117a7576117a661151a565b5b828201905092915050565b600060c0820190506117c76000830189611051565b81810360208301526117d9818861133e565b90506117e86040830187611051565b6117f56060830186611051565b6118026080830185611400565b61180f60a0830184611298565b979650505050505050565b7f4f776e61626c653a2063616c6c6572206973206e6f7420746865206f776e6572600082015250565b60006118506020836112fa565b915061185b8261181a565b602082019050919050565b6000602082019050818103600083015261187f81611843565b9050919050565b7f4f776e61626c653a206e6577206f776e657220697320746865207a65726f206160008201527f6464726573730000000000000000000000000000000000000000000000000000602082015250565b60006118e26026836112fa565b91506118ed82611886565b604082019050919050565b60006020820190508181036000830152611911816118d5565b905091905056fea2646970667358221220887358f1d9b0ea95641b23211151b84e89d1c3f0a444ee41df6d79eca74e3b7d64736f6c634300080a0033",
  "immutableReferences": {},
  "source": "// SPDX-License-Identifier: GPL-3.0\npragma solidity >=0.7.0 <0.9.0;\n\nimport \"@openzeppelin/contracts/security/ReentrancyGuard.sol\";\nimport \"@openzeppelin/contracts/access/Ownable.sol\";\n\ncontract MarketPlace is ReentrancyGuard, Ownable {\n    uint public skuCount = 0;\n    uint public salesCount = 0; //to keep track of how many purchases are stored in the mapping\n\n    enum SaleState {\n        Started,\n        Running,\n        Ended\n    }\n    struct Item {\n        uint sku;\n        string itemName;\n        uint itemPrice;\n        SaleState state;\n        uint qty;\n        uint itemsSold;\n        address payable owner;\n        uint startBlock;\n        uint endBlock;\n        uint saleTotal;\n        bool purchased;\n    }\n    mapping(uint => Item) public items; // creates key value pair so we are able to retrieve an item based on its properties\n    \n    event LogSold(uint sku, string itemName, uint qty, uint itemPrice, address payable owner, bool purchased);\n    event LogForSale(uint sku); \n    \n    \n    modifier onSale(uint _sku){\n        require(items[_sku].startBlock <= block.number);\n        require(items[_sku].endBlock >= block.number);\n        require (items[_sku].state == SaleState.Running);\n        require (items[_sku].sku > 0);\n        _;\n    }\n    \n    modifier paidEnough (uint _itemPrice, uint qty) {\n        require(msg.value >= _itemPrice * qty, \"Please submit the asking price in order to complete the purchase.\");\n        _;\n    }\n    \n    \n    modifier checkValue (uint _sku, uint _qty) {\n        _;\n        uint _itemPrice = items[_sku].itemPrice;\n        uint amountToRefund = msg.value - (_itemPrice * _qty);\n        payable(msg.sender).transfer(amountToRefund);\n    }\n\n    \n    function createMarketItem(string memory _itemName, uint _itemPrice, uint _qty) payable public\n        nonReentrant returns (bool)\n    {\n      require(bytes(_itemName).length > 0);\n      require(_itemPrice > 0);\n      require(_qty > 0);\n      skuCount = skuCount + 1;\n        items[skuCount] = Item({ //adding Item to items mapping\n            sku: skuCount,\n            itemName: _itemName,\n            itemPrice: _itemPrice,\n            state: SaleState.Running,\n            qty: _qty,\n            itemsSold: 0,\n            owner: payable(msg.sender),\n            startBlock: block.number,\n            endBlock:  block.number + 1051200,\n            saleTotal: 0,\n            purchased: false\n            \n        });\n        emit LogForSale(skuCount);\n        return true;\n    }\n\n        function buyItem(uint _sku, uint qty, uint price) public payable // purchase qty = 3, stock items[_sku].qty =10\n            onSale(_sku)\n            paidEnough(items[_sku].itemPrice, qty)\n            checkValue(_sku,  qty)\n            nonReentrant\n        {\n          // fetch the item to buy\n            Item memory _item = items[skuCount];\n          // fetch the owner\n          address payable seller = _item.owner;\n          // require that the buyer is not the seller\n            require(seller != msg.sender);\n           // transfer ownership to the buyer\n           _item.owner = payable(msg.sender);\n            require(items[_sku].state == SaleState.Running);\n            require(qty <= items[_sku].qty);\n            items[_sku].qty -= qty;\n            items[_sku].itemsSold += qty;\n          // update the product in the mapping\n          items[skuCount] = _item;\n          // mark as purchased\n          items[_sku].purchased = true;\n          // pay the seller by sending them ether\n            uint totalPaid = items[_sku].itemPrice * qty;\n            seller.transfer(msg.value);\n            items[_sku].saleTotal += totalPaid;\n\n            emit LogSold(_sku, _item.itemName, qty, _item.itemPrice, payable(msg.sender), true);\n    }\n}",
  "sourcePath": "/Users/mouzayanalkhalil/supernovas/consensys/contracts/Marketplace.sol",
  "compiler": {
    "name": "solc",
    "version": "0.8.10+commit.fc410830.Emscripten.clang"
  },
  "schemaVersion": "3.4.3",
  "updatedAt": "2021-11-29T01:47:13.301Z",
  "networkType": "ethereum",
  "devdoc": {
    "kind": "dev",
    "methods": {
      "owner()": {
        "details": "Returns the address of the current owner."
      },
      "renounceOwnership()": {
        "details": "Leaves the contract without owner. It will not be possible to call `onlyOwner` functions anymore. Can only be called by the current owner. NOTE: Renouncing ownership will leave the contract without an owner, thereby removing any functionality that is only available to the owner."
      },
      "transferOwnership(address)": {
        "details": "Transfers ownership of the contract to a new account (`newOwner`). Can only be called by the current owner."
      }
    },
    "version": 1
  },
  "userdoc": {
    "kind": "user",
    "methods": {},
    "version": 1
  }
}