{
  "contractName": "myContract",
  "abi": [
    {
      "anonymous": false,
      "inputs": [
        {
          "indexed": true,
          "internalType": "address",
          "name": "previousOwner",
          "type": "address"
        },
        {
          "indexed": true,
          "internalType": "address",
          "name": "newOwner",
          "type": "address"
        }
      ],
      "name": "OwnershipTransferred",
      "type": "event"
    },
    {
      "inputs": [],
      "name": "owner",
      "outputs": [
        {
          "internalType": "address",
          "name": "",
          "type": "address"
        }
      ],
      "stateMutability": "view",
      "type": "function"
    },
    {
      "inputs": [],
      "name": "renounceOwnership",
      "outputs": [],
      "stateMutability": "nonpayable",
      "type": "function"
    },
    {
      "inputs": [
        {
          "internalType": "address",
          "name": "newOwner",
          "type": "address"
        }
      ],
      "name": "transferOwnership",
      "outputs": [],
      "stateMutability": "nonpayable",
      "type": "function"
    },
    {
      "inputs": [
        {
          "internalType": "uint256",
          "name": "newA",
          "type": "uint256"
        }
      ],
      "name": "Change",
      "outputs": [],
      "stateMutability": "nonpayable",
      "type": "function"
    }
  ],
  "bytecode": "0x6080604052600060015534801561001557600080fd5b5061003261002761003760201b60201c565b61003f60201b60201c565b610103565b600033905090565b60008060009054906101000a900473ffffffffffffffffffffffffffffffffffffffff169050816000806101000a81548173ffffffffffffffffffffffffffffffffffffffff021916908373ffffffffffffffffffffffffffffffffffffffff1602179055508173ffffffffffffffffffffffffffffffffffffffff168173ffffffffffffffffffffffffffffffffffffffff167f8be0079c531659141344cd1fd0a4f28419497f9722a3daafe3b4186f6b6457e060405160405180910390a35050565b61060e806101126000396000f3fe608060405234801561001057600080fd5b506004361061004c5760003560e01c8063715018a6146100515780638da5cb5b1461005b578063f2fde38b14610079578063f956bf4a14610095575b600080fd5b6100596100b1565b005b610063610139565b60405161007091906103ed565b60405180910390f35b610093600480360381019061008e9190610439565b610162565b005b6100af60048036038101906100aa919061049c565b61025a565b005b6100b96102e0565b73ffffffffffffffffffffffffffffffffffffffff166100d7610139565b73ffffffffffffffffffffffffffffffffffffffff161461012d576040517f08c379a000000000000000000000000000000000000000000000000000000000815260040161012490610526565b60405180910390fd5b61013760006102e8565b565b60008060009054906101000a900473ffffffffffffffffffffffffffffffffffffffff16905090565b61016a6102e0565b73ffffffffffffffffffffffffffffffffffffffff16610188610139565b73ffffffffffffffffffffffffffffffffffffffff16146101de576040517f08c379a00000000000000000000000000000000000000000000000000000000081526004016101d590610526565b60405180910390fd5b600073ffffffffffffffffffffffffffffffffffffffff168173ffffffffffffffffffffffffffffffffffffffff16141561024e576040517f08c379a0000000000000000000000000000000000000000000000000000000008152600401610245906105b8565b60405180910390fd5b610257816102e8565b50565b6102626102e0565b73ffffffffffffffffffffffffffffffffffffffff16610280610139565b73ffffffffffffffffffffffffffffffffffffffff16146102d6576040517f08c379a00000000000000000000000000000000000000000000000000000000081526004016102cd90610526565b60405180910390fd5b8060018190555050565b600033905090565b60008060009054906101000a900473ffffffffffffffffffffffffffffffffffffffff169050816000806101000a81548173ffffffffffffffffffffffffffffffffffffffff021916908373ffffffffffffffffffffffffffffffffffffffff1602179055508173ffffffffffffffffffffffffffffffffffffffff168173ffffffffffffffffffffffffffffffffffffffff167f8be0079c531659141344cd1fd0a4f28419497f9722a3daafe3b4186f6b6457e060405160405180910390a35050565b600073ffffffffffffffffffffffffffffffffffffffff82169050919050565b60006103d7826103ac565b9050919050565b6103e7816103cc565b82525050565b600060208201905061040260008301846103de565b92915050565b600080fd5b610416816103cc565b811461042157600080fd5b50565b6000813590506104338161040d565b92915050565b60006020828403121561044f5761044e610408565b5b600061045d84828501610424565b91505092915050565b6000819050919050565b61047981610466565b811461048457600080fd5b50565b60008135905061049681610470565b92915050565b6000602082840312156104b2576104b1610408565b5b60006104c084828501610487565b91505092915050565b600082825260208201905092915050565b7f4f776e61626c653a2063616c6c6572206973206e6f7420746865206f776e6572600082015250565b60006105106020836104c9565b915061051b826104da565b602082019050919050565b6000602082019050818103600083015261053f81610503565b9050919050565b7f4f776e61626c653a206e6577206f776e657220697320746865207a65726f206160008201527f6464726573730000000000000000000000000000000000000000000000000000602082015250565b60006105a26026836104c9565b91506105ad82610546565b604082019050919050565b600060208201905081810360008301526105d181610595565b905091905056fea26469706673582212202541723adbaf8622c795d6a7b3808f28fc395e9904565432c539168d6ced032d64736f6c63430008090033",
  "immutableReferences": {},
  "source": "// SPDX-License-Identifier: MIT\npragma solidity >=0.4.22 <0.9.0;\n\nimport \"@openzeppelin/contracts/access/Ownable.sol\";\n\n/// @title Controlled Supply Chain\n/// @author Mouzayan Delbourgo \n/// @notice You can use this contract for basic supply chain assurance and control\n///@dev Some functions will have the side effect of updating state\ncontract SupplyManagement {\n    /// @notice This is the address of the initiator of the contract\n    address public owner = msg.sender;\n    /// @notice This is the amount of purchased items\n    uint256 public skuCount;\n\n    mapping(uint => Item) items;\n\n    enum Status {\n        ForSale,\n        Sold\n    }\n\n    struct Item {\n      string name;\n      uint sku;\n      uint price;\n      Status state;\n      address payable seller;\n      address payable buyer;\n    }  \n\n    event LogForSale(uint sku);\n    event LogSold(uint sku);\n\n    modifier isOwner () {\n      require (msg.sender == owner);\n      _;\n    }\n\n    modifier verifyCaller (address _address) {\n      require (msg.sender == _address);\n      _;\n    }\n\n    modifier paidEnough (uint _price) {\n      require (msg.value >= _price);\n      _;\n    }\n\n    modifier checkValue (uint _sku) {\n      _;\n      uint _price = items[_sku].price;\n      uint amountToRefund = msg.value - _price;\n      items[_sku].buyer.transfer(amountToRefund);\n    }\n\n    modifier forSale (uint _sku) {\n      require (items[_sku].state == Status.ForSale\n      && items[_sku].sku >=0);\n      _;\n    }\n\n    modifier sold (uint _sku) {\n      require (items[_sku].state == Status.Sold);\n      _;\n    }\n\n     constructor() {\n      owner == msg.sender;\n    }\n    \n    /// @notice Select item and its quantity to purchase\n    /// @param _name of item\n    /// @param _price of item\n    /// @return Boolean to confirm that item was added for purchase\n    function addItem (string memory _name, uint _price) public returns (bool) {\n\n      items[skuCount] = Item({\n        name: _name,\n        sku: skuCount,\n        price: _price,\n        state: Status.ForSale,\n        seller: payable(msg.sender),\n        buyer: payable(address(0))\n      });\n\n      skuCount = skuCount + 1;\n      emit LogForSale(skuCount);\n      return true;\n    }\n\n    /// @notice Complete your purchase\n    /// @param sku of item\n    function buyItem(uint sku) public payable forSale(sku) paidEnough(items[sku].price) checkValue(sku) {\n      items[sku].seller.transfer(items[sku].price);\n      items[sku].buyer == msg.sender;\n      items[sku].state = Status.Sold;\n\n      emit LogSold(sku);\n    }\n\n\n}\n\ncontract myContract is Ownable {\n  uint a = 0;\n\n  function Change(uint newA) public onlyOwner {\n    a = newA;\n  }\n}",
  "sourcePath": "/Users/mouzayanalkhalil/supernovas/consensys/contracts/SupplyManagement.sol",
  "compiler": {
    "name": "solc",
    "version": "0.8.9+commit.e5eed63a.Emscripten.clang"
  },
  "schemaVersion": "3.4.3",
  "updatedAt": "2021-11-09T00:39:39.458Z",
  "devdoc": {
    "kind": "dev",
    "methods": {
      "owner()": {
        "details": "Returns the address of the current owner."
      },
      "renounceOwnership()": {
        "details": "Leaves the contract without owner. It will not be possible to call `onlyOwner` functions anymore. Can only be called by the current owner. NOTE: Renouncing ownership will leave the contract without an owner, thereby removing any functionality that is only available to the owner."
      },
      "transferOwnership(address)": {
        "details": "Transfers ownership of the contract to a new account (`newOwner`). Can only be called by the current owner."
      }
    },
    "version": 1
  },
  "userdoc": {
    "kind": "user",
    "methods": {},
    "version": 1
  }
}