{
  "contractName": "SupplyManagement",
  "abi": [
    {
      "anonymous": false,
      "inputs": [
        {
          "indexed": false,
          "internalType": "uint256",
          "name": "sku",
          "type": "uint256"
        }
      ],
      "name": "LogForSale",
      "type": "event"
    },
    {
      "anonymous": false,
      "inputs": [
        {
          "indexed": false,
          "internalType": "uint256",
          "name": "sku",
          "type": "uint256"
        }
      ],
      "name": "LogSold",
      "type": "event"
    },
    {
      "anonymous": false,
      "inputs": [
        {
          "indexed": true,
          "internalType": "address",
          "name": "previousOwner",
          "type": "address"
        },
        {
          "indexed": true,
          "internalType": "address",
          "name": "newOwner",
          "type": "address"
        }
      ],
      "name": "OwnershipTransferred",
      "type": "event"
    },
    {
      "inputs": [],
      "name": "owner",
      "outputs": [
        {
          "internalType": "address",
          "name": "",
          "type": "address"
        }
      ],
      "stateMutability": "view",
      "type": "function"
    },
    {
      "inputs": [],
      "name": "renounceOwnership",
      "outputs": [],
      "stateMutability": "nonpayable",
      "type": "function"
    },
    {
      "inputs": [],
      "name": "skuCount",
      "outputs": [
        {
          "internalType": "uint256",
          "name": "",
          "type": "uint256"
        }
      ],
      "stateMutability": "view",
      "type": "function"
    },
    {
      "inputs": [
        {
          "internalType": "address",
          "name": "newOwner",
          "type": "address"
        }
      ],
      "name": "transferOwnership",
      "outputs": [],
      "stateMutability": "nonpayable",
      "type": "function"
    },
    {
      "inputs": [
        {
          "internalType": "string",
          "name": "_name",
          "type": "string"
        },
        {
          "internalType": "uint256",
          "name": "_price",
          "type": "uint256"
        },
        {
          "internalType": "uint256",
          "name": "_quantity",
          "type": "uint256"
        }
      ],
      "name": "defineStock",
      "outputs": [],
      "stateMutability": "nonpayable",
      "type": "function"
    },
    {
      "inputs": [
        {
          "internalType": "string",
          "name": "_name",
          "type": "string"
        },
        {
          "internalType": "uint256",
          "name": "_price",
          "type": "uint256"
        }
      ],
      "name": "addItem",
      "outputs": [
        {
          "internalType": "bool",
          "name": "",
          "type": "bool"
        }
      ],
      "stateMutability": "nonpayable",
      "type": "function"
    },
    {
      "inputs": [
        {
          "internalType": "uint256",
          "name": "sku",
          "type": "uint256"
        }
      ],
      "name": "buyItem",
      "outputs": [],
      "stateMutability": "payable",
      "type": "function"
    }
  ],
  "bytecode": "0x608060405234801561001057600080fd5b5061002d61002261003260201b60201c565b61003a60201b60201c565b6100fe565b600033905090565b60008060009054906101000a900473ffffffffffffffffffffffffffffffffffffffff169050816000806101000a81548173ffffffffffffffffffffffffffffffffffffffff021916908373ffffffffffffffffffffffffffffffffffffffff1602179055508173ffffffffffffffffffffffffffffffffffffffff168173ffffffffffffffffffffffffffffffffffffffff167f8be0079c531659141344cd1fd0a4f28419497f9722a3daafe3b4186f6b6457e060405160405180910390a35050565b610fb68061010d6000396000f3fe6080604052600436106100705760003560e01c8063715018a61161004e578063715018a6146101065780638da5cb5b1461011d578063e7fb74c714610148578063f2fde38b1461016457610070565b806304d0c06c14610075578063227024731461009e57806362d6bbdf146100c9575b600080fd5b34801561008157600080fd5b5061009c60048036038101906100979190610b1b565b61018d565b005b3480156100aa57600080fd5b506100b361020e565b6040516100c09190610b99565b60405180910390f35b3480156100d557600080fd5b506100f060048036038101906100eb9190610bb4565b610214565b6040516100fd9190610c2b565b60405180910390f35b34801561011257600080fd5b5061011b6103e3565b005b34801561012957600080fd5b5061013261046b565b60405161013f9190610c87565b60405180910390f35b610162600480360381019061015d9190610ca2565b610494565b005b34801561017057600080fd5b5061018b60048036038101906101869190610cfb565b610724565b005b61019561081c565b73ffffffffffffffffffffffffffffffffffffffff166101b361046b565b73ffffffffffffffffffffffffffffffffffffffff1614610209576040517f08c379a000000000000000000000000000000000000000000000000000000000815260040161020090610d85565b60405180910390fd5b505050565b60015481565b60006040518060c0016040528084815260200160015481526020018381526020016000600181111561024957610248610da5565b5b81526020013373ffffffffffffffffffffffffffffffffffffffff168152602001600073ffffffffffffffffffffffffffffffffffffffff1681525060026000600154815260200190815260200160002060008201518160000190805190602001906102b69291906108e8565b50602082015181600101556040820151816002015560608201518160030160006101000a81548160ff021916908360018111156102f6576102f5610da5565b5b021790555060808201518160030160016101000a81548173ffffffffffffffffffffffffffffffffffffffff021916908373ffffffffffffffffffffffffffffffffffffffff16021790555060a08201518160040160006101000a81548173ffffffffffffffffffffffffffffffffffffffff021916908373ffffffffffffffffffffffffffffffffffffffff1602179055509050506001805461039a9190610e03565b6001819055507f4627c48065af2a9648cbecdd4b9da340c00e501243cd49a8a71c30c987e8b7616001546040516103d19190610b99565b60405180910390a16001905092915050565b6103eb61081c565b73ffffffffffffffffffffffffffffffffffffffff1661040961046b565b73ffffffffffffffffffffffffffffffffffffffff161461045f576040517f08c379a000000000000000000000000000000000000000000000000000000000815260040161045690610d85565b60405180910390fd5b6104696000610824565b565b60008060009054906101000a900473ffffffffffffffffffffffffffffffffffffffff16905090565b80600060018111156104a9576104a8610da5565b5b6002600083815260200190815260200160002060030160009054906101000a900460ff1660018111156104df576104de610da5565b5b14801561050357506000600260008381526020019081526020016000206001015410155b61050c57600080fd5b60026000838152602001908152602001600020600201548034101561053057600080fd5b826002600085815260200190815260200160002060030160019054906101000a900473ffffffffffffffffffffffffffffffffffffffff1673ffffffffffffffffffffffffffffffffffffffff166108fc60026000878152602001908152602001600020600201549081150290604051600060405180830381858888f193505050501580156105c3573d6000803e3d6000fd5b503373ffffffffffffffffffffffffffffffffffffffff166002600086815260200190815260200160002060040160009054906101000a9050505060016002600086815260200190815260200160002060030160006101000a81548160ff0219169083600181111561063857610637610da5565b5b02179055507fe64ca8c671e48636f85f3008c1dd538e36bfa74fb6f2790b56b72fcc33b879ef8460405161066c9190610b99565b60405180910390a16000600260008381526020019081526020016000206002015490506000813461069d9190610e59565b90506002600084815260200190815260200160002060040160009054906101000a900473ffffffffffffffffffffffffffffffffffffffff1673ffffffffffffffffffffffffffffffffffffffff166108fc829081150290604051600060405180830381858888f1935050505015801561071b573d6000803e3d6000fd5b50505050505050565b61072c61081c565b73ffffffffffffffffffffffffffffffffffffffff1661074a61046b565b73ffffffffffffffffffffffffffffffffffffffff16146107a0576040517f08c379a000000000000000000000000000000000000000000000000000000000815260040161079790610d85565b60405180910390fd5b600073ffffffffffffffffffffffffffffffffffffffff168173ffffffffffffffffffffffffffffffffffffffff161415610810576040517f08c379a000000000000000000000000000000000000000000000000000000000815260040161080790610eff565b60405180910390fd5b61081981610824565b50565b600033905090565b60008060009054906101000a900473ffffffffffffffffffffffffffffffffffffffff169050816000806101000a81548173ffffffffffffffffffffffffffffffffffffffff021916908373ffffffffffffffffffffffffffffffffffffffff1602179055508173ffffffffffffffffffffffffffffffffffffffff168173ffffffffffffffffffffffffffffffffffffffff167f8be0079c531659141344cd1fd0a4f28419497f9722a3daafe3b4186f6b6457e060405160405180910390a35050565b8280546108f490610f4e565b90600052602060002090601f016020900481019282610916576000855561095d565b82601f1061092f57805160ff191683800117855561095d565b8280016001018555821561095d579182015b8281111561095c578251825591602001919060010190610941565b5b50905061096a919061096e565b5090565b5b8082111561098757600081600090555060010161096f565b5090565b6000604051905090565b600080fd5b600080fd5b600080fd5b600080fd5b6000601f19601f8301169050919050565b7f4e487b7100000000000000000000000000000000000000000000000000000000600052604160045260246000fd5b6109f2826109a9565b810181811067ffffffffffffffff82111715610a1157610a106109ba565b5b80604052505050565b6000610a2461098b565b9050610a3082826109e9565b919050565b600067ffffffffffffffff821115610a5057610a4f6109ba565b5b610a59826109a9565b9050602081019050919050565b82818337600083830152505050565b6000610a88610a8384610a35565b610a1a565b905082815260208101848484011115610aa457610aa36109a4565b5b610aaf848285610a66565b509392505050565b600082601f830112610acc57610acb61099f565b5b8135610adc848260208601610a75565b91505092915050565b6000819050919050565b610af881610ae5565b8114610b0357600080fd5b50565b600081359050610b1581610aef565b92915050565b600080600060608486031215610b3457610b33610995565b5b600084013567ffffffffffffffff811115610b5257610b5161099a565b5b610b5e86828701610ab7565b9350506020610b6f86828701610b06565b9250506040610b8086828701610b06565b9150509250925092565b610b9381610ae5565b82525050565b6000602082019050610bae6000830184610b8a565b92915050565b60008060408385031215610bcb57610bca610995565b5b600083013567ffffffffffffffff811115610be957610be861099a565b5b610bf585828601610ab7565b9250506020610c0685828601610b06565b9150509250929050565b60008115159050919050565b610c2581610c10565b82525050565b6000602082019050610c406000830184610c1c565b92915050565b600073ffffffffffffffffffffffffffffffffffffffff82169050919050565b6000610c7182610c46565b9050919050565b610c8181610c66565b82525050565b6000602082019050610c9c6000830184610c78565b92915050565b600060208284031215610cb857610cb7610995565b5b6000610cc684828501610b06565b91505092915050565b610cd881610c66565b8114610ce357600080fd5b50565b600081359050610cf581610ccf565b92915050565b600060208284031215610d1157610d10610995565b5b6000610d1f84828501610ce6565b91505092915050565b600082825260208201905092915050565b7f4f776e61626c653a2063616c6c6572206973206e6f7420746865206f776e6572600082015250565b6000610d6f602083610d28565b9150610d7a82610d39565b602082019050919050565b60006020820190508181036000830152610d9e81610d62565b9050919050565b7f4e487b7100000000000000000000000000000000000000000000000000000000600052602160045260246000fd5b7f4e487b7100000000000000000000000000000000000000000000000000000000600052601160045260246000fd5b6000610e0e82610ae5565b9150610e1983610ae5565b9250827fffffffffffffffffffffffffffffffffffffffffffffffffffffffffffffffff03821115610e4e57610e4d610dd4565b5b828201905092915050565b6000610e6482610ae5565b9150610e6f83610ae5565b925082821015610e8257610e81610dd4565b5b828203905092915050565b7f4f776e61626c653a206e6577206f776e657220697320746865207a65726f206160008201527f6464726573730000000000000000000000000000000000000000000000000000602082015250565b6000610ee9602683610d28565b9150610ef482610e8d565b604082019050919050565b60006020820190508181036000830152610f1881610edc565b9050919050565b7f4e487b7100000000000000000000000000000000000000000000000000000000600052602260045260246000fd5b60006002820490506001821680610f6657607f821691505b60208210811415610f7a57610f79610f1f565b5b5091905056fea264697066735822122043f897ba309b561fa7a71e6a6c2747a7a80724f9fd55c611fa87fee5630c8b2c64736f6c634300080a0033",
  "immutableReferences": {},
  "source": "// SPDX-License-Identifier: MIT\npragma solidity >=0.4.22 <0.9.0;\n\nimport \"@openzeppelin/contracts/access/Ownable.sol\";\n\n/// @title Controlled Supply Chain\n/// @author Mouzayan Delbourgo \n/// @notice You can use this contract for basic supply chain assurance and control\n///@dev Some functions will have the side effect of updating state\ncontract SupplyManagement is Ownable {\n    // /// @notice The account that deployed the contract\n    // address public override owner = msg.sender;\n    /// @notice This is the amount of purchased items\n    uint256 public skuCount;\n   // address private owner;\n\n    mapping(uint => Item) items;\n\n    enum Status {\n        ForSale,\n        Sold\n    }\n\n    struct Item {\n      string name;\n      uint sku;\n      uint price;\n      Status state;\n      address payable seller;\n      address payable buyer;\n    }  \n\n    event LogForSale(uint sku);\n    event LogSold(uint sku);\n\n    // modifier isOwner () {\n    //   require (owner == msg.sender);\n    //   _;\n    // }\n\n    modifier verifyCaller (address _address) {\n      require (msg.sender == _address);\n      _;\n    }\n\n    modifier paidEnough (uint _price) {\n      require (msg.value >= _price);\n      _;\n    }\n\n    modifier checkValue (uint _sku) {\n      _;\n      uint _price = items[_sku].price;\n      uint amountToRefund = msg.value - _price;\n      items[_sku].buyer.transfer(amountToRefund);\n    }\n\n    modifier forSale (uint _sku) {\n      require (items[_sku].state == Status.ForSale\n      && items[_sku].sku >=0);\n      _;\n    }\n\n    modifier sold (uint _sku) {\n      require (items[_sku].state == Status.Sold);\n      _;\n    }\n\n    // constructor() {\n    //   owner == msg.sender;\n    // }\n\n    function defineStock (string memory _name, uint _price, uint _quantity ) public onlyOwner {\n\n    }\n    \n    /// @notice Select item and its quantity to purchase\n    /// @param _name of item\n    /// @param _price of item\n    /// @return Boolean to confirm that item was added for purchase\n    function addItem (string memory _name, uint _price) public returns (bool) {\n\n      items[skuCount] = Item({\n        name: _name,\n        sku: skuCount,\n        price: _price,\n        state: Status.ForSale,\n        seller: payable(msg.sender),\n        buyer: payable(address(0))\n      });\n\n      skuCount = skuCount + 1;\n      emit LogForSale(skuCount);\n      return true;\n    }\n\n    /// @notice Complete your purchase\n    /// @param sku of item for  purchase\n    function buyItem(uint sku) public payable forSale(sku) paidEnough(items[sku].price) checkValue(sku) {\n      items[sku].seller.transfer(items[sku].price);\n      items[sku].buyer == msg.sender;\n      items[sku].state = Status.Sold;\n\n      emit LogSold(sku);     \n    }\n\n}\n",
  "sourcePath": "/Users/mouzayanalkhalil/supernovas/consensys/contracts/SupplyManagement.sol",
  "compiler": {
    "name": "solc",
    "version": "0.8.10+commit.fc410830.Emscripten.clang"
  },
  "schemaVersion": "3.4.3",
  "updatedAt": "2021-11-10T23:59:31.184Z",
  "devdoc": {
    "author": "Mouzayan Delbourgo ",
    "details": "Some functions will have the side effect of updating state",
    "kind": "dev",
    "methods": {
      "addItem(string,uint256)": {
        "params": {
          "_name": "of item",
          "_price": "of item"
        },
        "returns": {
          "_0": "Boolean to confirm that item was added for purchase"
        }
      },
      "buyItem(uint256)": {
        "params": {
          "sku": "of item for  purchase"
        }
      },
      "owner()": {
        "details": "Returns the address of the current owner."
      },
      "renounceOwnership()": {
        "details": "Leaves the contract without owner. It will not be possible to call `onlyOwner` functions anymore. Can only be called by the current owner. NOTE: Renouncing ownership will leave the contract without an owner, thereby removing any functionality that is only available to the owner."
      },
      "transferOwnership(address)": {
        "details": "Transfers ownership of the contract to a new account (`newOwner`). Can only be called by the current owner."
      }
    },
    "title": "Controlled Supply Chain",
    "version": 1
  },
  "userdoc": {
    "kind": "user",
    "methods": {
      "addItem(string,uint256)": {
        "notice": "Select item and its quantity to purchase"
      },
      "buyItem(uint256)": {
        "notice": "Complete your purchase"
      },
      "skuCount()": {
        "notice": "This is the amount of purchased items"
      }
    },
    "notice": "You can use this contract for basic supply chain assurance and control",
    "version": 1
  }
}