{
  "contractName": "SupplyManagement",
  "abi": [
    {
      "inputs": [],
      "stateMutability": "nonpayable",
      "type": "constructor"
    },
    {
      "anonymous": false,
      "inputs": [
        {
          "indexed": false,
          "internalType": "uint256",
          "name": "sku",
          "type": "uint256"
        }
      ],
      "name": "LogForSale",
      "type": "event"
    },
    {
      "anonymous": false,
      "inputs": [
        {
          "indexed": false,
          "internalType": "uint256",
          "name": "sku",
          "type": "uint256"
        }
      ],
      "name": "LogSold",
      "type": "event"
    },
    {
      "inputs": [],
      "name": "owner",
      "outputs": [
        {
          "internalType": "address",
          "name": "",
          "type": "address"
        }
      ],
      "stateMutability": "view",
      "type": "function"
    },
    {
      "inputs": [],
      "name": "skuCount",
      "outputs": [
        {
          "internalType": "uint256",
          "name": "",
          "type": "uint256"
        }
      ],
      "stateMutability": "view",
      "type": "function"
    },
    {
      "inputs": [
        {
          "internalType": "string",
          "name": "_name",
          "type": "string"
        },
        {
          "internalType": "uint256",
          "name": "_price",
          "type": "uint256"
        }
      ],
      "name": "addItem",
      "outputs": [
        {
          "internalType": "bool",
          "name": "",
          "type": "bool"
        }
      ],
      "stateMutability": "nonpayable",
      "type": "function"
    },
    {
      "inputs": [
        {
          "internalType": "uint256",
          "name": "sku",
          "type": "uint256"
        }
      ],
      "name": "buyItem",
      "outputs": [],
      "stateMutability": "payable",
      "type": "function"
    }
  ],
  "bytecode": "0x6080604052336000806101000a81548173ffffffffffffffffffffffffffffffffffffffff021916908373ffffffffffffffffffffffffffffffffffffffff16021790555034801561005057600080fd5b503373ffffffffffffffffffffffffffffffffffffffff1660008054906101000a90505050610a73806100846000396000f3fe60806040526004361061003f5760003560e01c8063227024731461004457806362d6bbdf1461006f5780638da5cb5b146100ac578063e7fb74c7146100d7575b600080fd5b34801561005057600080fd5b506100596100f3565b6040516100669190610638565b60405180910390f35b34801561007b57600080fd5b50610096600480360381019061009191906107d9565b6100f9565b6040516100a39190610850565b60405180910390f35b3480156100b857600080fd5b506100c16102c8565b6040516100ce91906108ac565b60405180910390f35b6100f160048036038101906100ec91906108c7565b6102ec565b005b60015481565b60006040518060c0016040528084815260200160015481526020018381526020016000600181111561012e5761012d6108f4565b5b81526020013373ffffffffffffffffffffffffffffffffffffffff168152602001600073ffffffffffffffffffffffffffffffffffffffff16815250600260006001548152602001908152602001600020600082015181600001908051906020019061019b92919061057c565b50602082015181600101556040820151816002015560608201518160030160006101000a81548160ff021916908360018111156101db576101da6108f4565b5b021790555060808201518160030160016101000a81548173ffffffffffffffffffffffffffffffffffffffff021916908373ffffffffffffffffffffffffffffffffffffffff16021790555060a08201518160040160006101000a81548173ffffffffffffffffffffffffffffffffffffffff021916908373ffffffffffffffffffffffffffffffffffffffff1602179055509050506001805461027f9190610952565b6001819055507f4627c48065af2a9648cbecdd4b9da340c00e501243cd49a8a71c30c987e8b7616001546040516102b69190610638565b60405180910390a16001905092915050565b60008054906101000a900473ffffffffffffffffffffffffffffffffffffffff1681565b8060006001811115610301576103006108f4565b5b6002600083815260200190815260200160002060030160009054906101000a900460ff166001811115610337576103366108f4565b5b14801561035b57506000600260008381526020019081526020016000206001015410155b61036457600080fd5b60026000838152602001908152602001600020600201548034101561038857600080fd5b826002600085815260200190815260200160002060030160019054906101000a900473ffffffffffffffffffffffffffffffffffffffff1673ffffffffffffffffffffffffffffffffffffffff166108fc60026000878152602001908152602001600020600201549081150290604051600060405180830381858888f1935050505015801561041b573d6000803e3d6000fd5b503373ffffffffffffffffffffffffffffffffffffffff166002600086815260200190815260200160002060040160009054906101000a9050505060016002600086815260200190815260200160002060030160006101000a81548160ff021916908360018111156104905761048f6108f4565b5b02179055507fe64ca8c671e48636f85f3008c1dd538e36bfa74fb6f2790b56b72fcc33b879ef846040516104c49190610638565b60405180910390a1600060026000838152602001908152602001600020600201549050600081346104f591906109a8565b90506002600084815260200190815260200160002060040160009054906101000a900473ffffffffffffffffffffffffffffffffffffffff1673ffffffffffffffffffffffffffffffffffffffff166108fc829081150290604051600060405180830381858888f19350505050158015610573573d6000803e3d6000fd5b50505050505050565b82805461058890610a0b565b90600052602060002090601f0160209004810192826105aa57600085556105f1565b82601f106105c357805160ff19168380011785556105f1565b828001600101855582156105f1579182015b828111156105f05782518255916020019190600101906105d5565b5b5090506105fe9190610602565b5090565b5b8082111561061b576000816000905550600101610603565b5090565b6000819050919050565b6106328161061f565b82525050565b600060208201905061064d6000830184610629565b92915050565b6000604051905090565b600080fd5b600080fd5b600080fd5b600080fd5b6000601f19601f8301169050919050565b7f4e487b7100000000000000000000000000000000000000000000000000000000600052604160045260246000fd5b6106ba82610671565b810181811067ffffffffffffffff821117156106d9576106d8610682565b5b80604052505050565b60006106ec610653565b90506106f882826106b1565b919050565b600067ffffffffffffffff82111561071857610717610682565b5b61072182610671565b9050602081019050919050565b82818337600083830152505050565b600061075061074b846106fd565b6106e2565b90508281526020810184848401111561076c5761076b61066c565b5b61077784828561072e565b509392505050565b600082601f83011261079457610793610667565b5b81356107a484826020860161073d565b91505092915050565b6107b68161061f565b81146107c157600080fd5b50565b6000813590506107d3816107ad565b92915050565b600080604083850312156107f0576107ef61065d565b5b600083013567ffffffffffffffff81111561080e5761080d610662565b5b61081a8582860161077f565b925050602061082b858286016107c4565b9150509250929050565b60008115159050919050565b61084a81610835565b82525050565b60006020820190506108656000830184610841565b92915050565b600073ffffffffffffffffffffffffffffffffffffffff82169050919050565b60006108968261086b565b9050919050565b6108a68161088b565b82525050565b60006020820190506108c1600083018461089d565b92915050565b6000602082840312156108dd576108dc61065d565b5b60006108eb848285016107c4565b91505092915050565b7f4e487b7100000000000000000000000000000000000000000000000000000000600052602160045260246000fd5b7f4e487b7100000000000000000000000000000000000000000000000000000000600052601160045260246000fd5b600061095d8261061f565b91506109688361061f565b9250827fffffffffffffffffffffffffffffffffffffffffffffffffffffffffffffffff0382111561099d5761099c610923565b5b828201905092915050565b60006109b38261061f565b91506109be8361061f565b9250828210156109d1576109d0610923565b5b828203905092915050565b7f4e487b7100000000000000000000000000000000000000000000000000000000600052602260045260246000fd5b60006002820490506001821680610a2357607f821691505b60208210811415610a3757610a366109dc565b5b5091905056fea264697066735822122010f6b946b3fdfa4995893516d7d6056b62e07699c46bb6fd54a388d36b8353e964736f6c63430008090033",
  "immutableReferences": {},
  "source": "// SPDX-License-Identifier: MIT\npragma solidity >=0.4.22 <0.9.0;\n\nimport \"@openzeppelin/contracts/access/Ownable.sol\";\n\n/// @title Controlled Supply Chain\n/// @author Mouzayan Delbourgo \n/// @notice You can use this contract for basic supply chain assurance and control\n///@dev Some functions will have the side effect of updating state\ncontract SupplyManagement {\n    /// @notice This is the address of the initiator of the contract\n    address public owner = msg.sender;\n    /// @notice This is the amount of purchased items\n    uint256 public skuCount;\n\n    mapping(uint => Item) items;\n\n    enum Status {\n        ForSale,\n        Sold\n    }\n\n    struct Item {\n      string name;\n      uint sku;\n      uint price;\n      Status state;\n      address payable seller;\n      address payable buyer;\n    }  \n\n    event LogForSale(uint sku);\n    event LogSold(uint sku);\n\n    modifier isOwner () {\n      require (msg.sender == owner);\n      _;\n    }\n\n    modifier verifyCaller (address _address) {\n      require (msg.sender == _address);\n      _;\n    }\n\n    modifier paidEnough (uint _price) {\n      require (msg.value >= _price);\n      _;\n    }\n\n    modifier checkValue (uint _sku) {\n      _;\n      uint _price = items[_sku].price;\n      uint amountToRefund = msg.value - _price;\n      items[_sku].buyer.transfer(amountToRefund);\n    }\n\n    modifier forSale (uint _sku) {\n      require (items[_sku].state == Status.ForSale\n      && items[_sku].sku >=0);\n      _;\n    }\n\n    modifier sold (uint _sku) {\n      require (items[_sku].state == Status.Sold);\n      _;\n    }\n\n     constructor() {\n      owner == msg.sender;\n    }\n    \n    /// @notice Select item and its quantity to purchase\n    /// @param _name of item\n    /// @param _price of item\n    /// @return Boolean to confirm that item was added for purchase\n    function addItem (string memory _name, uint _price) public returns (bool) {\n\n      items[skuCount] = Item({\n        name: _name,\n        sku: skuCount,\n        price: _price,\n        state: Status.ForSale,\n        seller: payable(msg.sender),\n        buyer: payable(address(0))\n      });\n\n      skuCount = skuCount + 1;\n      emit LogForSale(skuCount);\n      return true;\n    }\n\n    /// @notice Complete your purchase\n    /// @param sku of item\n    function buyItem(uint sku) public payable forSale(sku) paidEnough(items[sku].price) checkValue(sku) {\n      items[sku].seller.transfer(items[sku].price);\n      items[sku].buyer == msg.sender;\n      items[sku].state = Status.Sold;\n\n      emit LogSold(sku);\n    }\n\n\n}\n\ncontract myContract is Ownable {\n  uint a = 0;\n\n  function Change(uint newA) public onlyOwner {\n    a = newA;\n  }\n}",
  "sourcePath": "/Users/mouzayanalkhalil/supernovas/consensys/contracts/SupplyManagement.sol",
  "compiler": {
    "name": "solc",
    "version": "0.8.9+commit.e5eed63a.Emscripten.clang"
  },
  "schemaVersion": "3.4.3",
  "updatedAt": "2021-11-09T00:39:39.455Z",
  "devdoc": {
    "author": "Mouzayan Delbourgo ",
    "details": "Some functions will have the side effect of updating state",
    "kind": "dev",
    "methods": {
      "addItem(string,uint256)": {
        "params": {
          "_name": "of item",
          "_price": "of item"
        },
        "returns": {
          "_0": "Boolean to confirm that item was added for purchase"
        }
      },
      "buyItem(uint256)": {
        "params": {
          "sku": "of item"
        }
      }
    },
    "title": "Controlled Supply Chain",
    "version": 1
  },
  "userdoc": {
    "kind": "user",
    "methods": {
      "addItem(string,uint256)": {
        "notice": "Select item and its quantity to purchase"
      },
      "buyItem(uint256)": {
        "notice": "Complete your purchase"
      },
      "owner()": {
        "notice": "This is the address of the initiator of the contract"
      },
      "skuCount()": {
        "notice": "This is the amount of purchased items"
      }
    },
    "notice": "You can use this contract for basic supply chain assurance and control",
    "version": 1
  }
}